S02200006865617465725F636F6E74726F6C6C65725F6669726D776172652E737265632A
S11300000C9401030C9429030C9429030C942903E4
S11300100C9429030C9429030C9429030C942903AC
S11300200C9429030C9429030C9429030C9429039C
S11300300C9429030C9429030C9429030C9429038C
S11300400C94810B0C9429030C9409090C943B091E
S11300500C9429030C9429030C9429030C9429036C
S11300600C9429030C9429030E041B043B04280458
S113007031043B04480400407A10F35A00A0724E45
S113008018090010A5D4E80000E87648170000E439
S11300900B54020000CA9A3B000000E1F505000081
S11300A080969800000040420F000000A0860100E6
S11300B00000102700000000E803000000006400B6
S11300C0000000000A000000000001000000000021
S11300D02C76D888DC674F0823DFC1DFAE59E1B145
S11300E0B796E5E3E453C63AE651997696E8E6C254
S11300F08426EB898C9B62ED407C6FFCEFBC9C9F5B
S113010040F2BAA56FA5F490055A2AF75C936B6C7C
S1130110F9676DC11BFCE0E40D47FEF520E6B50070
S1130120D0ED902E0300943577050080841E0800DE
S113013000204E0A000000C80C333333330F986E8E
S113014012831141EF8D2114893BE65516CFFEE64B
S1130150DB18D1844B381BF77C1D901DA4BBE42411
S1130160203284725E228100C9F124ECA1E53D278E
S1130170010204081020408001020408102001023A
S11301800408102004040404040404040202020207
S113019002020303030303030000000025002800F8
S11301A02B0000000000240027002A00FFE0FFD1FC
S11301B0AFFF32FFD0FFFEFFE0FFD1AEFFD0FFFE66
S11301C0FFE0FFD11000FFFEFFD0FFE0FFC1FFD131
S11301D0AED580A83FD300408D142000A1C8DA1208
S11301E081CFD9F1DB402EA4A6AFFFD0FFFE000AD9
S11301F00AFFFE05016C02C8207FFE07FE06FE0012
S113020000000200000106060301008080808000D7
S113021080030303040004A0A0A005050506000054
S113022050F850F8500307070400FF406080402056
S1130230C040050505060000C8D0205898050606EC
S113024006000040A040A09068010303020004805F
S113025080800207070300FF408080808080400286
S113026007070300FF80404040404080030303042D
S11302700003A040A003030305010140E040020382
S1130280030300FEC04080030101040002E00101F9
S113029001020000800306060400FF202040408085
S11302A08003050504000040A0A0A040020505034A
S11302B0000040C040404004050505000060902057
S11302C040F0040505050000E0106010E004050599
S11302D00500009090907010040505050000F08062
S11302E0E010E00405050500006080E0906004056E
S11302F005050000F010204080040505050000609D
S11303009060906004050505000060907010600125
S113031003030301008000800205050300FE400082
S11303204040800405050500001060806010030350
S113033003040001E000E0040505050000806010EE
S11303406080040606050000609020400040050619
S1130350060600007088A8B080700405050500003A
S1130360609090F090040505050000E090E090E0B6
S113037004050505000060908090600405050500F3
S113038000E0909090E0040505050000F080E08016
S1130390F0040505050000F080E0808004050505F3
S11303A000006080B090600405050500009090F0A6
S11303B09090030505040000E0404040E00405057A
S11303C00500007010109060040505050000909071
S11303D090E09003050504000080808080E005051E
S11303E005060000D8A8A8A8880405050500009003
S11303F090D0B090040505050000609090906004D2
S11304000505050000E09090E08004050505000066
S113041060909050E0040505050000E09090E090A5
S113042003050504000060804020C00305050400A6
S113043000E0404040400405050500009090909085
S11304406005050506000088505050200505050686
S11304500000888888A85004050505000090909045
S113046060900406060500FF9090907010600405EB
S113047005050000F0204080F00207070300FFC0DC
S11304808080808080C00306060400FF8080404096
S113049020200207070300FFC04040404040C00343
S11304A0020204000440A00401010500FFF002025E
S11304B0020300058040040404050000609090706D
S11304C004050505000080E0909060030404040026
S11304D00060808060040505050000107090906045
S11304E00404040500006090A070040505050000E4
S11304F0609080C0800406060500FE609090701035
S11305006004050505000080E09090900105050257
S11305100000800080808003070703FFFE20002086
S1130520202020C003050504000080A0C0A0A00175
S11305300505020000808080808005040406000018
S1130540D0A8A888040404050000E0909090040456
S113055004050000609090600406060500FE6090AB
S113056090E080800406060500FE609090701010F4
S1130570040404050000E0908080040404050000E5
S1130580704020E003050504000040E040404004C2
S11305900404050000909090700404040500009089
S11305A090906005040406000088A8A85004040480
S11305B0050000909060900406060500FE9090905F
S11305C0701060040404050000F02040F0030707E5
S11305D00400FF204040804040200107070200FF44
S11305E0808080808080800307070400FF80404073
S11305F02040408005030306000140A810FF380690
S11306006B0911241FBECFEFD8E0DEBFCDBF11E0D0
S1130610A0E0B1E0E8E9F4E302C005900D92A4394A
S1130620B107D9F724E0A4E9B1E001C01D92AF34C9
S1130630B207E1F712E0C1E0D3E004C02197FE0164
S11306400E94D913CF3FD107C9F70E9499090C948E
S11306504A1A0C940000CF93DF93EC01262F4CAD83
S11306606BAD04960E943B0E9BAD890F8BAF81E06E
S113067090E0DF91CF9108958F929F92AF92BF92B5
S1130680CF92DF92EF92FF920F931F93CF93DF935A
S11306908C0165E171E082E293E00E94E709480180
S11306A08EE5880E911CE12CF12C87E1A82EB12C4B
S11306B0F80180819181E816F9060CF045C0F40137
S11306C0C190D1904F01E60109900020E9F72197EC
S11306D0CC19DD0965E271E082E293E00E94E7094A
S11306E067E271E082E293E00E94E709B7017727AD
S11306F06F5F7F4F4AE050E082E293E00E949B0AE2
S113070069E271E082E293E00E94E709B5016C1BA3
S11307107D0B4AE050E082E293E00E944D0A63E2DE
S113072071E082E293E00E94E709B60182E293E07D
S11307300E94E7096BE271E082E293E00E94E7091C
S1130740FFEFEF1AFF0AB4CF8091940190919501C5
S1130750A0919601B0919701F80186839783A087B1
S1130760B187128ADF91CF911F910F91FF90EF9083
S1130770DF90CF90BF90AF909F908F900895CF92CD
S1130780DF92EF92FF920F931F93CF93DF938C012D
S1130790EC016C0185E4C80ED11CE12CF12CD801CC
S11307A08D919C91E816F9060CF084C065E271E025
S11307B082E293E00E94E70967E271E082E293E05B
S11307C00E94E709B70177276F5F7F4F4AE050E047
S11307D082E293E00E949B0A69E271E082E293E084
S11307E00E94E7094AE050E06AE170E082E293E0A7
S11307F00E949B0A63E271E082E293E00E94E709AF
S1130800D601ED916D018E2F90E08730910508F0AF
S113081046C0FC01EC5CFF4F0C94D913EB89FC89B6
S113082040815181628173812AE030E082E293E069
S11308300E94530A34C0EB89FC8940815181628152
S113084073812AE030E082E293E00E94390A27C0F3
S1130850EB89FC896081718182E293E00E94E7095F
S11308601EC0EB89FC894AE050E0608182E293E09B
S11308700E94460A14C0EB89FC894081518162813F
S1130880738122E030E082E293E00E947F0B07C094
S1130890EB89FC89608182E293E00E94E9096FE2BE
S11308A071E082E293E00E94E709BFEFEB1AFB0AD2
S11308B0229675CF8091940190919501A091960113
S11308C0B0919701F80182839383A483B583DF9168
S11308D0CF911F910F91FF90EF90DF90CF900895EB
S11308E026E040E052EC61E070E082E293E00E9496
S11308F0A40861E083E00E942F0C81E0809321032F
S113090088EE92E00C949A0F0F931F93CF9361E0BB
S113091088EE92E00E94E40F80912103811107C0C8
S113092081E08093210388EE92E00E949A0F88EE82
S113093092E00E94BF0F6EEE71E088EE92E00E949A
S1130940A20E08E911E0C1E080910303C89F802D45
S1130950112410921F0380932003B80184EE92E0C7
S11309600E94E709CF5F025E1F4FC73069F788EE28
S113097092E00E94C40F8111DECFCF911F910F919D
S113098008952F923F924F925F926F927F928F922F
S11309909F92AF92BF92CF92DF92EF92FF920F930A
S11309A01F93CF93DF93CDB7DEB727970FB6F89495
S11309B0DEBF0FBECDBF8D8380E991E00E94FF139F
S11309C08C01FC0180579E4F119211921192119249
S11309D0E817F907C9F734E6232E312C812C912C22
S11309E05401412C512C3201C12CD12C76018D8122
S11309F00E94120CBC01990F880B990B0E9452079C
S1130A0069837A838B839C83C201880F991F880F23
S1130A10991F9F838E8394E689169104A104B104DF
S1130A2030F4AFEF8A1A9A0AAA0ABA0A0EC0EE8103
S1130A30FF81E00FF11F2081318142815381C70181
S1130A40B6010E9471066B017C01EE81FF81E00F0B
S1130A50F11F89819A81AB81BC8180839183A283B8
S1130A60B3839C01AD01C701B6010E9472066B01FC
S1130A707C01FFEF4F1A5F0A6F0A7F0A84E648166B
S1130A8051046104710418F0412C512C320191E09D
S1130A90291A310809F0ABCFC8010E949714C50187
S1130AA0B4010E9450079B01AC01C701B6010E942A
S1130AB0DE0627960FB6F894DEBF0FBECDBFDF91DA
S1130AC0CF911F910F91FF90EF90DF90CF90BF9047
S1130AD0AF909F908F907F906F905F904F903F90DA
S1130AE02F900895CF92DF92EF92FF920F931F936E
S1130AF0CF93DF93CDB7DEB727970FB6F894DEBF59
S1130B000FBECDBF0E94CB0B6093940170939501EF
S1130B108093960190939701009156021091570289
S1130B2020915802309159026B017C01C01AD10AFC
S1130B30E20AF30A00915E0210915F0220916002C2
S1130B4030916102C016D106E206F30650F100911D
S1130B505A0210915B0220915C0230915D02DC012B
S1130B60CB01801B910BA20BB30B0091620210917D
S1130B706302209164023091650280179107A207F5
S1130B80B30718F081E0809366028091660288239F
S1130B9021F084E592E00E943C0384E592E00E9407
S1130BA0BF038EE090E00E94C104609350027093F2
S1130BB0510280935202909353028FE090E00E947E
S1130BC0C10460934C0270934D0280934E02909343
S1130BD04F026091500270915102809152029091A3
S1130BE053028E010F5F1F4F21E046E00E94DF1386
S1130BF09F938F9386E391E09F938F931F928EE14F
S1130C00F82EFF9288E991E09F938F930E9420151C
S1130C1060914C0270914D0280914E0290914F026E
S1130C2021E046E00E94DF139F938F938AE491E0D2
S1130C309F938F931F92FF9286EB91E09F938F93E4
S1130C400E9420150E9484040FB6F894DEBF0FBEE4
S1130C50CDBF27960FB6F894DEBF0FBECDBFDF9190
S1130C60CF911F910F91FF90EF90DF90CF90089557
S1130C70CF93DF93C4EED2E01B821A8287E691E021
S1130C809983888342E167E071E0CE010E946B0C96
S1130C908FE691E099838883E4E5F2E01182108283
S1130CA08091940190919501A0919601B091970142
S1130CB082839383A483B5838AEF90E0A0E0B0E0BD
S1130CC082879387A487B58788E893E1A0E0B0E0A2
S1130CD086879787A08BB18B81E0828BDF91CF9140
S1130CE008955058BB27AA270E9489060C94A4078C
S1130CF00E94960738F00E949D0720F039F49F3F28
S1130D0019F426F40C9493070EF4E095E7FB0C9485
S1130D108D07E92F0E94B50758F3BA1762077307C6
S1130D208407950720F079F4A6F50C94D7070EF400
S1130D30E0950B2EBA2FA02D0B01B90190010C01E7
S1130D40CA01A0011124FF27591B99F0593F50F4FF
S1130D50503E68F11A16F040A22F232F342F442757
S1130D60585FF3CF469537952795A795F04053954F
S1130D70C9F77EF41F16BA0B620B730B840BBAF01F
S1130D809150A1F0FF0FBB1F661F771F881FC2F78A
S1130D900EC0BA0F621F731F841F48F4879577959E
S1130DA06795B795F7959E3F08F0B0CF9395880F58
S1130DB008F09927EE0F9795879508950E94F206FB
S1130DC00C94A4070E949D0758F00E94960740F0D7
S1130DD029F45F3F29F00C948D0751110C94D80726
S1130DE00C9493070E94B50768F39923B1F3552334
S1130DF091F3951B550BBB27AA276217730784072A
S1130E0038F09F5F5F4F220F331F441FAA1FA9F3BF
S1130E1035D00E2E3AF0E0E832D091505040E695AD
S1130E20001CCAF72BD0FE2F29D0660F771F881F0E
S1130E30BB1F261737074807AB07B0E809F0BB0B01
S1130E40802DBF01FF2793585F4F3AF09E3F510515
S1130E5078F00C948D070C94D8075F3FE4F3983E28
S1130E60D4F3869577956795B795F7959F5FC9F7FE
S1130E70880F911D9695879597F90895E1E0660F7F
S1130E80771F881FBB1F621773078407BA0720F0F8
S1130E90621B730B840BBA0BEE1F88F7E095089561
S1130EA0E89409C097FB3EF4909580957095619500
S1130EB07F4F8F4F9F4F9923A9F0F92F96E9BB27B6
S1130EC09395F695879577956795B795F111F8CF32
S1130ED0FAF4BB0F11F460FF1BC06F5F7F4F8F4F9D
S1130EE09F4F16C0882311F096E911C0772321F093
S1130EF09EE8872F762F05C0662371F096E8862F2B
S1130F0070E060E02AF09A95660F771F881FDAF781
S1130F10880F9695879597F9089597F99F6780E8C4
S1130F2070E060E008959FEF80EC089500240A9437
S1130F301616170618060906089500240A941216B0
S1130F401306140605060895092E0394000C11F4E3
S1130F50882352F0BB0F40F4BF2B11F460FF04C090
S1130F606F5F7F4F8F4F9F4F089557FD9058440FE9
S1130F70551F59F05F3F71F04795880F97FB991FF4
S1130F8061F09F3F79F087950895121613061406B1
S1130F90551FF2CF4695F1DF08C01616170618063E
S1130FA0991FF1CF86957105610508940895E89419
S1130FB0BB2766277727CB0197F90895FC01918D0C
S1130FC0228D892F90E0805C9F4F821B91098F7343
S1130FD099270895FC01918D828D981731F0828DA7
S1130FE0E80FF11D858D90E008958FEF9FEF089530
S1130FF0FC01918D828D981761F0828DDF01A80F1D
S1131000B11D5D968C91928D9F5F9F73928F90E03E
S113101008958FEF9FEF089581E699E0892B49F0B9
S113102080E090E0892B29F00E94610981110C94E1
S113103000000895FC01848DDF01A80FB11DA35A9F
S1131040BF4F2C91848D90E001968F739927848FE4
S1131050A689B7892C93A089B1898C9180648C93DB
S1131060938D848D981306C00288F389E02D8081C6
S11310708F7D80830895EF92FF920F931F93CF93F8
S1131080DF93EC0181E0888F9B8D8C8D981305C0D4
S1131090E889F989808185FD24C0F62E0B8D10E046
S11310A00F5F1F4F0F731127E02E8C8DE8120CC0B9
S11310B00FB607FCFACFE889F989808185FFF5CF5F
S11310C0CE010E941A08F1CF8B8DFE01E80FF11DAD
S11310D0E35AFF4FF0820B8FEA89FB89808180629B
S11310E007C0EE89FF896083E889F989808180647B
S11310F0808381E090E0DF91CF911F910F91FF9069
S1131100EF900895CF93DF93EC01888D8823C9F085
S1131110EA89FB89808185FD05C0A889B9898C91FC
S113112086FD0FC00FB607FCF5CF808185FFF2CF97
S1131130A889B9898C9185FFEDCFCE010E941A0848
S1131140E7CFDF91CF910895CF92DF92EF92FF9294
S11311501F93CF93DF93EC016A017B01122FE8897F
S1131160F98982E080834115514E61057105B1F022
S113117060E079E08DE390E0A70196010E94B71347
S1131180DA01C9010197A109B109B695A795979507
S113119087959C01211580E13807A8F0E889F98931
S11311A0108260E874E88EE190E0A70196010E9445
S11311B0B713DA01C9010197A109B109B695A79539
S11311C0979587959C01EC85FD853083EE85FF8599
S11311D02083188EEC89FD891083EA89FB8980813C
S11311E080618083EA89FB89808188608083EA89C1
S11311F0FB89808180688083EA89FB8980818F7D77
S11312008083DF91CF911F91FF90EF90DF90CF907B
S113121008951F920F920FB60F9211242F938F935C
S11312209F93EF93FF93E0913203F0913303808116
S1131230E0913803F091390382FD12C090818091CE
S11312403B038F5F8F7320913C03821751F0E09131
S11312503B03F0E0EE5DFC4F958F80933B0301C0B0
S11312608081FF91EF919F918F912F910F900FBEED
S11312700F901F9018951F920F920FB60F92112482
S11312802F933F934F935F936F937F938F939F938A
S1131290AF93BF93EF93FF9382E293E00E941A0807
S11312A0FF91EF91BF91AF919F918F917F916F913A
S11312B05F914F913F912F910F900FBE0F901F9010
S11312C0189582E293E00E94DE0721E0892B09F45D
S11312D020E0822F0895E2E2F3E01382128288EE86
S11312E093E0A0E0B0E084839583A683B78387E787
S11312F091E09183808385EC90E09587848784ECEA
S113130090E09787868780EC90E0918B808B81ECCE
S113131090E0938B828B82EC90E0958B848B86ECAF
S113132090E0978B868B118E128E138E148E0895F7
S113133008950E94D70B0E9498090E947004CCE083
S1131340D8E00E9472052097E1F30E940C08F9CFBF
S1131350CF92DF92EF92FF920F931F93CF93DF937D
S11313606C017A018B01C0E0D0E0CE15DF0581F07D
S1131370D8016D918D01D601ED91FC910190F08120
S1131380E02DC6010995892B11F02196EECF7E013F
S1131390C701DF91CF911F910F91FF90EF90DF90E4
S11313A0CF9008956115710579F0FB01019000203B
S11313B0E9F73197AF01461B570BDC01ED91FC9126
S11313C00280F381E02D099480E090E008950C946C
S11313D0D209DC01ED91FC910190F081E02D09949A
S11313E08F929F92AF92BF92EF92FF920F931F93AF
S11313F0CF93DF93CDB7DEB7A1970FB6F894DEBFD6
S11314000FBECDBF7C01FA01CB0119A2223008F432
S11314102AE08E010F5D1F4F822E912CA12CB12C3E
S1131420BF01A50194010E94B713F901CA0101503B
S113143011096A3010F4605D01C0695CD8016C93D5
S1131440232B242B252B61F7B801C7010E94D20955
S1131450A1960FB6F894DEBF0FBECDBFDF91CF913A
S11314601F910F91FF90EF90BF90AF909F908F903E
S113147008952115310541F4DC01ED91FC910190B1
S1131480F081E02D642F09940C94F0099A01462F01
S113149050E060E070E00C94390A9A01AB0160E01E
S11314A070E00C94390ACF92DF92EF92FF920F937F
S11314B01F93CF93DF932115310581F4DC01ED9166
S11314C0FC910190F081E02D642FDF91CF911F9169
S11314D00F91FF90EF90DF90CF9009942A3031055F
S11314E001F577FF1DC06A017B01EC016DE20E94EA
S11314F0E9098C0144275527BA014C195D096E0985
S11315007F092AE0CE010E94F009800F911FDF912C
S1131510CF911F910F91FF90EF90DF90CF9008959E
S11315202AE0DF91CF911F910F91FF90EF90DF9010
S1131530CF900C94F0099A01AB01770F660B770BEF
S11315400C94530A7F928F929F92AF92BF92CF9244
S1131550DF92EF92FF920F931F93CF93DF938C014F
S11315606A017B01722E9A01AB01C701B6010E9488
S1131570B213882319F066E871E027C046015701C9
S1131580E894B7F82FEF3FEF4FE75FE7C501B401E9
S11315900E94B21381110DC02FEF3FEF4FE75FE7B9
S11315A0C501B4010E94E11218161CF46AE871E046
S11315B00CC02FEF3FEF4FE75FE4C701B6010E9475
S11315C04013181694F46EE871E0C801DF91CF91CE
S11315D01F910F91FF90EF90DF90CF90BF90AF904D
S11315E09F908F907F900C94D2092FEF3FEF4FE79D
S11315F05FECC701B6010E94E11287FDE4CF20E051
S113160030E0A901C701B6010E94E11287FF0AC0B8
S11316106DE2C8010E94E909EC01F7FAF094F7F8C9
S1131620F09402C0C0E0D0E0B12C60E070E080E053
S11316309FE37B1441F020E030E040E251E40E945B
S1131640DE06B394F6CFA70196010E9472066B01E1
S11316507C010E94ED124B015C012AE0AB01BC014C
S1131660C8010E94F009C80FD91F7720C9F1C5012C
S1131670B4010E9450079B01AC01C701B6010E944E
S113168071066B017C0162E971E0C8010E94D20914
S1131690C80FD91F20E030E040E251E4C701B60191
S11316A00E9445134B015C010E94E6126B017C0110
S11316B04AE050E0C8010E949B0AC80FD91FB60136
S11316C0DD0C880B990B0E9452079B01AC01C501EC
S11316D0B4010E9471066B017C017A947110DACF17
S11316E0CE01DF91CF911F910F91FF90EF90DF908A
S11316F0CF90BF90AF909F908F907F9008950C945F
S1131700A20A1F920F920FB60F9211242F933F93A8
S11317108F939F93AF93BF938091C0039091C10324
S1131720A091C203B091C3033091BF0323E0230F00
S11317302D3720F40196A11DB11D05C026E8230F05
S11317400296A11DB11D2093BF038093C003909303
S1131750C103A093C203B093C3038091C4039091C7
S1131760C503A091C603B091C7030196A11DB11D85
S11317708093C4039093C503A093C603B093C70397
S1131780BF91AF919F918F913F912F910F900FBE79
S11317900F901F9018952FB7F8946091C003709123
S11317A0C1038091C2039091C3032FBF089578941D
S11317B084B5826084BD84B5816084BD85B5826052
S11317C085BD85B5816085BDEEE6F0E080818160F0
S11317D08083E1E8F0E010828081826080838081F0
S11317E081608083E0E8F0E0808181608083E1EBC8
S11317F0F0E0808184608083E0EBF0E080818160B0
S11318008083EAE7F0E08081846080838081826065
S1131810808380818160808380818068808310924E
S1131820C10008958E3008F08E502091060190E496
S1131830299F900111248770822B80937C008091D2
S11318407A00806480937A0080917A0086FDFCCFD0
S1131850809178002091790090E0922B0895CF93A5
S1131860DF9390E0FC01E059FE4F2491FC01EC571A
S1131870FE4F8491882361F190E0880F991FFC0149
S1131880EE55FE4FC591D491FC01E856FE4FA5914B
S1131890B491611109C09FB7F8948881209582237F
S11318A08883EC912E230BC0623061F49FB7F894C7
S11318B08881322F309583238883EC912E2B2C93AF
S11318C09FBF06C08FB7F894E8812E2B28838FBF63
S11318D0DF91CF910895FC0113AE14AE15AE0496BA
S11318E00C94AA0FAF92BF92CF92DF92FF920F9304
S11318F01F93CF93DF938C01EB01F42E690180E1F8
S11319004817B1F1841770F0EAE04E133CC042E08E
S1131910C8010E94041148EC51E0BE01C8010E94B4
S1131920431131C0F1E14F1731F185E148132BC068
S1131930AA80BB8040EC51E0C8010E944311F5012C
S11319404481406BBE01C8010E94331141E0BE01D5
S1131950C8010E942A11AE01B801C5010E942E10CF
S1131960882301F140E0BE01C8010E940D110BC0A3
S113197047EB51E002C04CEA51E0BE01C8010E94AD
S1131980431181E00FC096014F2DBE01C801DF91C4
S1131990CF911F910F91FF90DF90CF90BF90AF90A8
S11319A00C949A10DF91CF911F910F91FF90DF90CB
S11319B0CF90BF90AF900895FC01E60FF11D849184
S11319C090E0982F88273196E4918E0F911D089509
S11319D0FC01849108950E94E80C882321F0823050
S11319E011F083E0089586E0089580E0089566E0AC
S11319F00C94DC0C68E00C94DC0C0A96FC018491D9
S1131A0008950B96FC0184910895BF92CF92DF92C2
S1131A10EF92FF920F931F93CF93DF938C01E62EE7
S1131A20DC011496CD91DC911597CE010E94E80C4F
S1131A30F82EF801848195810E94EB0CC82EF1E008
S1131A40FF1203C02FE0B22E02C0BB24BA94D80107
S1131A5014968D919C9115970E94FD0CF82EF80117
S1131A60848195810E94010DD82ED80114968D9100
S1131A709C9115970E94FA0CB0E6BE1538F40097B5
S1131A8029F0C80FD91F91E6F92E10C0F8018481FE
S1131A9095810E94F70CF0E4FE1538F4009729F0C4
S1131AA0C80FD91F81E4F82E01C06196DE1490F4AA
S1131AB0D80150961C92509753961C925397549663
S1131AC01C92549751961C92519752961C9280E006
S1131AD090E067C0DF1460F38C2D90E0FE01249148
S1131AE02F3F11F4219658C0FE104DC0D801149612
S1131AF08D919C9115970E94E80C9E012F5F3F4F9A
S1131B00FE01882311F08230E1F48491D8015396C8
S1131B108C935397F901249154962C935497FE0176
S1131B203396E4915096EC935097FE013496E491E9
S1131B305196EC935197FE013596E4915296EC93AD
S1131B4020C08491982F9F709250D80152969C93F4
S1131B50529782958F7051968C935197F9012491E5
S1131B60822F8F7054968C93549722952F7053968E
S1131B702C935397FE013296E491E295EF705096C0
S1131B80EC93CE010EC0FE013296E491EB219C0150
S1131B902E0F311DC20FD31FFD1409F489CFF39406
S1131BA09DCFDF91CF911F910F91FF90EF90DF9028
S1131BB0CF90BF9008956F927F928F929F92AF9231
S1131BC0BF92CF92DF92EF92FF920F931F93CF9326
S1131BD0DF93EC01C62E742E622F0E94050D7C014A
S1131BE0892BC9F18C819D810E94EB0CB82E1B8935
S1131BF00C898989C80E8A89781AD72CD01A212F82
S1131C004D2D6C2DCE010E94E210882311F1EB0CB6
S1131C10F11C195F169516951695812E912C7D143D
S1131C20C1F06C2C57018A2D8E19811770F4F501BF
S1131C30049120E04D2D662DCE010E94D30FFFEFBD
S1131C40AF1ABF0A88E0680EEECFE80CF91CD394F3
S1131C50E6CF888901C080E0DF91CF911F910F9179
S1131C60FF90EF90DF90CF90BF90AF909F908F90B8
S1131C707F906F900895FF920F931F93CF93DF93FC
S1131C80EC01062F142FF22EED89FE890995482FB9
S1131C90410F2F2D602FCE01DF91CF911F910F9116
S1131CA0FF900C94DB0DDC0114962D913C9115975B
S1131CB02115310509F43FC057968C915797F901C6
S1131CC0811108C03596E4915896EC935897F90120
S1131CD03C9611C0813041F43F96E4915896EC93C0
S1131CE05897F901709607C03D96E4915896EC9385
S1131CF05897F9013E96E4915996EC935997589662
S1131D008C915897082E000C990B59962C91599741
S1131D10821B910927FD93955A962C915A9720344A
S1131D2041F0829FC001112426E0969587952A955B
S1131D30E1F75B968C93089525EF3CE0FC01368B2C
S1131D40258B0895CF93DF93FC01248135812617D9
S1131D50370749F0EC01758364830E94530E85EFC5
S1131D609CE09E8B8D8BDF91CF9108951F93CF9331
S1131D70DF93EC011D821C821F821E82198681E082
S1131D80888782E28A871F861E86FE01B396CE016B
S1131D90C1962FEF2193E817F907E1F711E018A393
S1131DA0CE010E949C0E1F8B188E198E80E48A8FA0
S1131DB01B8E81EE90E19AAB89ABDF91CF911F919D
S1131DC00895DB01ED91FC9109940F931F93CF9338
S1131DD0DF93EC018B01E9A9FAA982E0099520E0DF
S1131DE030E04AE0B801CE010E94E10E182FE9A9C3
S1131DF0FAA983E00995E9A9FAA980E00995812F58
S1131E00DF91CF911F910F9108950F931F93CF935B
S1131E10DF93EC018B01E9A9FAA982E00995E9A90C
S1131E20FAA981E0099520E030E044E1B801CE014F
S1131E300E94E10E9E012D5C3F4F47E1B801CE01A7
S1131E400E94E10EE9A9FAA980E0DF91CF911F91E8
S1131E500F910994EF92FF921F93CF93DF93EC01BC
S1131E607B01E9A9FAA982E00995E9A9FAA981E027
S1131E70099520E030E045E1B701CE010E94E10E72
S1131E80182F882341F09E012D5C3F4F47E1B70195
S1131E90CE010E94E10EE9A9FAA980E00995812FFB
S1131EA0DF91CF911F91FF90EF900895CF93DF932F
S1131EB01F92CDB7DEB79E012F5F3F4F46E40E94CD
S1131EC0E10E89810F90DF91CF910895CF93DF9335
S1131ED01F92CDB7DEB79E012F5F3F4F47E40E94AC
S1131EE0E10E89810F90DF91CF91089520E030E0D9
S1131EF048E40C94E10ECF93DF93EC016A817B817B
S1131F000E94560F88836A817B81CE010E94660FEE
S1131F1089836A817B81CE010E94760F8B879E0123
S1131F202D5C3F4F6A817B8147E1CE01DF91CF91E8
S1131F300C94E10ECF93DF93EC016A817B810E94C4
S1131F40E50E882321F0CE010E947B0F81E0DF9112
S1131F50CF910895EF92FF921F93CF93DF93EC01FB
S1131F607B01142F0E94B60EFB82EA821EA7CE01CB
S1131F70DF91CF911F91FF90EF900C949A0FFC0189
S1131F80628173810C94050FCF93DF93EC01EE858E
S1131F90FF85309709F009956A817B81CE01DF9135
S1131FA0CF910C942A0F0F93FC0182819381648F4B
S1131FB0458F278F068F9F01245E3F4F4BE3BC0163
S1131FC0CF010F910C94E10EFC0160A30895DC0194
S1131FD01696ED91FC91179715968C919F01280FF9
S1131FE0311DC9011192E817F907E1F7089531E0AD
S1131FF0FC012381261708F430E021E0FC018281F2
S1132000481708F420E091E0461708F090E0892F83
S1132010832B2823832F8923822B0895DC01FB0142
S1132020108212968C911297818315968C91159734
S11320308150828313968C9183830895FB0141819F
S11320402381213029F0233031F468EF640F04C078
S1132050642F485F01C0642F0C94F70FFC01CB017F
S1132060BA012681378145810C943C11DC01169616
S1132070ED91FC91179712968C91481B477081E063
S113208090E001C0880F4A95EAF7E60FF11D308110
S1132090222311F0832B02C080958323808308952B
S11320A0FB014181DC0112962C911297421768F0D2
S11320B013962C911397241740F0608115962C9158
S11320C0621718F424810C9436100895CF92DF928D
S11320D0FF920F931F93CF93DF936C01EB01FA8070
S11320E08B81813051F030F0823049F0833051F4EB
S11320F01FEF09C010E001E007C011E004C010E0C8
S11321000FEF02C010E000E0F7FE04C0BE01C601FC
S11321100E9450108881800F88838981810F898370
S1132120FF0C91F7DF91CF911F910F91FF90DF90FA
S1132130CF9008950F931F93CF93DF938901FB01F1
S1132140C281D3814233F9F068F4453109F1473152
S113215041F1443181F5CE010E94E70FCE010E9486
S1132160C41229C0463411F1473411F14B3319F527
S1132170B901CE010E941E108823E9F0B801CE01F6
S11321800E94661018C0B901CE010E94501013C0FD
S1132190CE010E94CB12882379F0CE010E94E70F72
S11321A00AC0B901CE010E940E1005C08D8101C084
S11321B08981F801808381E0DF91CF911F910F9194
S11321C0089508950F93FC010150040F84A996A962
S11321D0941718F0081728F402C0081750F00417D1
S11321E040F42150260F83A995A9961720F42817A7
S11321F020F480E007C0281720F481E0261710F0AF
S1132200F8CF81E00F910895DB011496ED91FC91D4
S1132210159720E030E061E00994DB011496ED911C
S1132220FC91159720E030E063E00994DB011496FB
S1132230ED91FC91159720E030E040E064E00994D2
S1132240DB011496ED91FC91159720E030E041E01C
S113225064E00994DB011496ED91FC91159720E05C
S113226030E062E00994DB011496ED91FC9115973E
S113227020E030E065E00994DB011496ED91FC91D7
S1132280159766E00994CF92DF92EF92FF920F9335
S11322901F93CF93DF938C016B017A0180E0F701E8
S11322A0C49181110AC0CF3FE9F14C2FB601C80196
S11322B00E94331181112FC03AC0CF3F11F44FEF68
S11322C0F5CFCE3FB1F1C03F30F5C03E38F04C2FD2
S11322D04F70B601C8010E942A111DC0C03D38F0DC
S11322E04C2F4F70B601C8010E940D1114C0C03CA0
S11322F0A0F0B601C8010E941611C295C07FCE5F3E
S1132300D0E0CE010E94BA12B601C8010E94201189
S1132310CE010E94BA1280E006C0C7FDFCCF8C2F0C
S113232090E0F7CF81E0FFEFEF1AFF0AB8CF80E02B
S113233001C081E0DF91CF911F910F91FF90EF9049
S1132340DF90CF900895CF93DF93FC0123A5222340
S113235081F0EC0188E70E945B12811102C080E0E9
S113236009C08EA1811180E40E9492128823B9F3DE
S11323701BA681E0DF91CF9108950F931F93CF9314
S1132380C42F89016330C1F050F4613081F06230B0
S113239009F048C0FC0146A321E023A743C06630EE
S11323A011F1673079F1653009F03CC00EC0FC01D1
S11323B086A50E94251236C0FC0116A221E023A79F
S11323C0411130C00E94B3122DC00E94A31181118B
S11323D004C00E94B31280E026C08C2F0E94921287
S11323E0811120C0F6CF0E94A311882391F3CC233E
S11323F0C9F0F80181918F010E949212882349F358
S1132400C150F5CF0E94A311882319F3CC2351F0B6
S1132410F80184910E949212882329F00F5F1F4FC4
S1132420C150F4CF81E0CF911F910F910895909105
S11324304A04911104C080934A04609348040895A7
S113244010924A041092480408958093490410920B
S1132450B90084FF02C08CE001C088E48093B80016
S11324600C9420121F93CF93DF9300D0CDB7DEB727
S113247020ED37E03A8329839091BC00982399F4A6
S113248029813A81232B51F480914904182F127029
S113249081FD09C081E00E94171206C029813A819A
S11324A021503109E7CF11E0812F0F900F90DF9178
S11324B0CF911F910895CF93C82F84EA8093BC00D5
S11324C061E080E80E943212882359F08091B900BB
S11324D0887F883041F0803131F061E082E00E94F1
S11324E01712C0E01CC0C093BB0084E88093BC00FA
S11324F062E080E80E943212882399F380914904B3
S1132500C82FC27081FD0AC08091B900887F8831CC
S113251029F062E082E00E94171201C0C1E08C2F12
S1132520CF910895CF938093BB0084E88093BC003F
S113253063E080E80E943212C82F882389F08091DA
S11325404904C82FC27081FD0AC08091B900887FF8
S1132550883229F063E082E00E94171201C0C1E0D2
S11325608C2FCF91089584E98093BC0064E080E1CE
S11325700C9432122EE93FE0009729F0F9013197CB
S1132580F1F70197F9CF0895FC01128280818150FF
S1132590838314820895FC0130819281930F928386
S11325A02181921760F494819F5F94838381830FC8
S11325B0821710F08FEF820F838381E0089580E00B
S11325C008950E941C1308F481E008950E94ED12FE
S11325D06894B1110C94D80708950E94BD0788F03F
S11325E09F5798F0B92F9927B751B0F0E1F0660FD3
S11325F0771F881F991F1AF0BA95C9F714C0B13014
S113260091F00E94D707B1E008950C94D707672F83
S1132610782F8827B85F39F0B93FCCF38695779542
S11326206795B395D9F73EF490958095709561952B
S11326307F4F8F4F9F4F0895990F0008550FAA0B96
S1132640E0E8FEEF16161706E807F907C0F01216C1
S11326501306E407F50798F0621B730B840B950BC4
S113266039F40A2661F0232B242B252B21F4089519
S11326700A2609F4A140A6958FEF811D811D0895B6
S11326800E941C1308F48FEF08950E9458130C94B1
S1132690A4070E94960738F00E949D0720F0952316
S11326A011F00C948D070C94930711240C94D80703
S11326B00E94B50770F3959FC1F3950F50E0551F25
S11326C0629FF001729FBB27F00DB11D639FAA2783
S11326D0F00DB11DAA1F649F6627B00DA11D661FD2
S11326E0829F2227B00DA11D621F739FB00DA11DF3
S11326F0621F839FA00D611D221F749F3327A00DAD
S1132700611D231F849F600D211D822F762F6A2F48
S113271011249F5750409AF0F1F088234AF0EE0FAD
S1132720FF1FBB1F661F771F881F91505040A9F7DA
S11327309E3F510580F00C948D070C94D8075F3FA1
S1132740E4F3983ED4F3869577956795B795F79516
S1132750E7959F5FC1F7FE2B880F911D969587958E
S113276097F908950E941C13880B990B0895A1E210
S11327701A2EAA1BBB1BFD010DC0AA1FBB1FEE1FF7
S1132780FF1FA217B307E407F50720F0A21BB30B42
S1132790E40BF50B661F771F881F991F1A9469F7BE
S11327A060957095809590959B01AC01BD01CF011A
S11327B00895EE0FFF1F0590F491E02D0994EF9218
S11327C00F931F93CF93DF93E80147FD02C034E0DA
S11327D001C034E1042E000C550B57FF03C0519582
S11327E041955109E32E022F242FAE010E94311787
S11327F0CE01DF91CF911F910F91EF9008950F9328
S11328001F93CF93DF938230910510F482E090E020
S1132810E0914D04F0914E0420E030E0A0E0B0E0FF
S1132820309719F14081518102811381481759076A
S1132830C8F08417950769F4109731F012960C9339
S1132840129713961C9327C000934D0410934E04C3
S113285022C02115310519F04217530718F49A01C3
S1132860BD01EF01DF01F801DBCF21153105F9F0DE
S1132870281B390B2430310580F48A819B81611532
S1132880710521F0FB019383828304C090934E046D
S113289080934D04FE01329644C0FE01E20FF31F03
S11328A08193919322503109398328833AC020912E
S11328B04B0430914C04232B41F4209102013091BC
S11328C0030130934C0420934B0420910001309178
S11328D001012115310541F42DB73EB740910401A2
S11328E050910501241B350BE0914B04F0914C04ED
S11328F0E217F307A0F42E1B3F0B2817390778F0D3
S1132900AC014E5F5F4F2417350748F04E0F5F1F31
S113291050934C0440934B048193919302C0E0E0A4
S1132920F0E0CF01DF91CF911F910F910895CF93E4
S1132930DF93009709F481C0FC013297138212825D
S1132940A0914D04B0914E04109781F420813181FF
S1132950820F931F20914B0430914C0428173907A0
S113296051F5F0934C04E0934B0467C0ED0120E073
S113297030E0CE17DF0740F44A815B819E014115A8
S11329805105F1F0EA01F5CFD383C283408151812F
S1132990840F951FC817D90759F488819981840F2A
S11329A0951F0296918380838A819B81938382837E
S11329B02115310529F4F0934E04E0934D043DC0F4
S11329C0E901FB83EA8349915991C40FD51FEC17A0
S11329D0FD0761F480819181840F951F0296E901BE
S11329E099838883828193819B838A83E0E0F0E0EA
S11329F012968D919C911397009719F0FD01DC01BB
S1132A00F7CF8D919C9111979D012E5F3F4F820FBF
S1132A10931F20914B0430914C042817390769F413
S1132A20309729F410924E0410924D0402C0138280
S1132A301282B0934C04A0934B04DF91CF9108957C
S1132A40AEE0B0E0E6E2F5E10C94211A0D891E89AE
S1132A508F89988D26E02C831A83098397FF02C0FF
S1132A6080E090E801979E838D83AE01455E5F4FC1
S1132A70698D7A8DCE0101960E9450154D815E813B
S1132A8057FD0AC02F813885421753070CF49A0169
S1132A90F801E20FF31F10822E96E4E00C943D1A25
S1132AA0ABE0B0E0E6E5F5E10C94131A6C017B01B0
S1132AB08A01FC0117821682838181FFCCC1CE0179
S1132AC001963C01F6019381F70193FD859193FFF3
S1132AD081917F01882309F4BAC1853239F493FDC9
S1132AE0859193FF81917F01853229F4B60190E0AD
S1132AF00E947919E7CF912C212C312CFFE1F31599
S1132B00D8F08B3279F038F4803279F08332A1F442
S1132B10232D20611DC08D3261F0803369F4232D93
S1132B20216016C0832D8260382EE32DE4603E2E92
S1132B302AC0F32DF8601DC037FC2DC020ED280FEE
S1132B402A3040F08E32B9F436FC81C1232D206442
S1132B50322E19C036FE06C08AE0989E200D11243C
S1132B60922E11C0EAE02E9E200D1124222EF32D68
S1132B70F0623F2E08C08C3621F4832D8068382EF5
S1132B8002C0883641F4F70193FD859193FF81914A
S1132B907F018111B3CF982F9F7D9554933028F4F2
S1132BA00C5F1F4F9FE399830DC0833631F0833749
S1132BB071F0833509F059C021C0F80180818983FF
S1132BC00E5F1F4F88248394912C530113C0280156
S1132BD0F2E04F0E511CF801A080B18036FE03C014
S1132BE0692D70E002C06FEF7FEFC5010E946E197E
S1132BF04C018201F32DFF773F2E16C0280122E0FD
S1132C00420E511CF801A080B18036FE03C0692D2C
S1132C1070E002C06FEF7FEFC5010E9463194C01A1
S1132C20F32DF0683F2E820133FC1BC0822D90E00F
S1132C3088169906B0F4B60180E290E00E947919F2
S1132C402A94F4CFF50137FC859137FE81915F0119
S1132C50B60190E00E94791921102A9421E0821A89
S1132C6091088114910471F7E8C0843611F0893613
S1132C7041F5F80137FE07C060817181828193813B
S1132C800C5F1F4F08C060817181072E000C880BF8
S1132C90990B0E5F1F4FF32DFF763F2E97FF09C050
S1132CA090958095709561957F4F8F4F9F4FF068F9
S1132CB03F2E2AE030E0A3010E94B519882E861821
S1132CC045C0853731F4232D2F7EB22E2AE030E023
S1132CD025C0932D997FB92E8F36C1F018F488350D
S1132CE079F0B5C0803719F0883721F0B0C0E92FEA
S1132CF0E061BE2EB4FE0DC0FB2DF460BF2E09C0F2
S1132D0034FE0AC0292F2660B22E06C028E030E027
S1132D1005C020E130E002C020E132E0F801B7FE56
S1132D2007C060817181828193810C5F1F4F06C04F
S1132D306081718180E090E00E5F1F4FA3010E94CB
S1132D40B519882E8618FB2DFF773F2E36FE0DC051
S1132D50232D2E7FA22E891458F434FE0BC032FC8E
S1132D6009C0832D8E7EA82E05C0B82CA32C03C0C9
S1132D70B82C01C0B92CA4FE0FC0FE01E80DF11D52
S1132D808081803321F49A2D997EA92E09C0A2FE58
S1132D9006C0B394B39404C08A2D867809F0B39422
S1132DA0A3FC11C0A0FE06C0B21488F4280C922C17
S1132DB09B180EC0B21460F4B60180E290E00E9449
S1132DC07919B394F7CFB21418F42B1802C0982CC5
S1132DD0212CA4FE10C0B60180E390E00E94791972
S1132DE0A2FE17C0A1FC03C088E790E002C088E5FA
S1132DF090E0B6010CC08A2D867859F0A1FE02C07D
S1132E008BE201C080E2A7FC8DE2B60190E00E9453
S1132E107919891438F4B60180E390E00E94791995
S1132E209A94F7CF8A94F301E80DF11D8081B601DD
S1132E3090E00E9479198110F5CF222009F442CE46
S1132E40B60180E290E00E9479192A94F6CFF60147
S1132E508681978102C08FEF9FEF2B96E2E10C945D
S1132E602F1AA9E0B0E0E7E3F7E10C94191A6A011C
S1132E70122FB02E2BE3201720F0FF24F394F00E32
S1132E8002C02CE3F22E0F2D27E0AE014F5F5F4FFF
S1132E900E948B18BC014981842F8970813031F0E4
S1132EA0E1FC06C0E0FE06C090E205C09DE203C05E
S1132EB09BE201C090E05E2D507143FF3CC0911134
S1132EC002C083E001C084E0811718F4212F281B7D
S1132ED001C020E051110BC0F601822F30E288239B
S1132EE019F031938150FBCFC20ED11C20E09923FD
S1132EF029F0D6019C93F60131966F01C601039621
S1132F00E2FE0AC03EE4D6013C9341E411964C93A0
S1132F10119712963C9306C03EE6F601308341E6D3
S1132F2041833283FC01322F40E2332309F442C04F
S1132F3041933150FACF42FF44C0911102C083E063
S1132F4001C084E0811718F4212F281B01C020E060
S1132F5051110BC0F601822F30E2882319F031930E
S1132F608150FBCFC20ED11C20E0992329F0D60159
S1132F709C93F60131966F01C6010396E2FE0BC0E5
S1132F8039E4D6013C933EE411963C93119736E420
S1132F9012963C9307C039E6F60130833EE631834E
S1132FA036E63283FC01322F40E2332319F0419399
S1132FB03150FBCFFC01E20FF11D10828EEF9FEF29
S1132FC0A6C021E030E0911102C020E030E01616E6
S1132FD017061CF4FB01319602C0E1E0F0E02E0F6D
S1132FE03F1FBB2021F0EB2DF0E0319602C0E0E062
S1132FF0F0E02E0F3F1FE12FF0E02E173F071CF4E7
S1133000121B212F01C020E08E2D887159F4F60186
S1133010822F30E2882319F031938150FBCFC20E06
S1133020D11C20E0992329F0D6019C93F601319616
S11330306F0151110BC0F601822F90E3882319F020
S113304091938150FBCFC20ED11C20E00F2D060FAF
S11330509A81342F307144FF03C0913309F4015035
S1133060101624F4093018F008E001C001E0AB01A7
S113307077FF02C040E050E0FB01E41BF50BA1E048
S1133080B0E0AC0FBD1FEA0FFB1F8EE2A82E4B0170
S1133090801A91080B2D10E01195019511094F3FED
S11330A0BFEF5B0721F4D601AC9211966D01641752
S11330B075072CF08416950614F4818101C080E311
S11330C0415051093196D60111967D01401751079F
S11330D024F0D6018C936701E2CF6417750739F4A5
S11330E0963320F4953319F4311101C081E3F601CC
S11330F08083F701822F90E2882319F09193815005
S1133100FBCFF701E20FF11D108280E090E02996D9
S1133110ECE00C94351A283008F027E03327DA0164
S1133120990F311D87FD916000966105710539F491
S113313032602E5F3D9330E32A95E1F708959F3F77
S113314030F080387105610509F03C5F3C5F3D93C8
S1133150913008F08068911DDF93CF931F930F93F4
S1133160FF92EF92192F987F9695E92F9695969551
S1133170E90FFF27E053FF4F99273327EE24FF245D
S1133180A701E70105900894079428F4360FE71E79
S1133190F81E491F511D660F771F881F991F06943B
S11331A0A1F70590079428F4E70EF81E491F561F4F
S11331B0C11D770F881F991F661F0694A1F70590FC
S11331C0079428F4F80E491F561FC71FD11D880FF6
S11331D0991F661F771F0694A1F70590079420F4A2
S11331E0490F561FC71FD81F990F661F771F881FC7
S11331F00694A9F784911095177041F0D695C79558
S113320057954795F794E7941A95C1F7E6E7F0E0E8
S113321068941590159135916591959105907FE28B
S11332207395E118F10A430B560BC90BD009C0F78B
S1133230E10CF11E431F561FC91FD01D7EF47033CD
S113324011F48A95E6CFE894015030F0080F0AF49F
S11332500027021708F4202F2395022F7A3328F031
S113326079E37D932A95E9F710C07D932A9589F631
S1133270069497956795379517951794E118F10A71
S1133280430B560BC90BD00998F023957E91739587
S11332907A3308F070E37C932013B8F77E91706161
S11332A07D9330F0839571E37D9370E32A95E1F784
S11332B01124EF90FF900F911F91CF91DF919927E7
S11332C087FD90950895FC010590615070400110B0
S11332D0D8F7809590958E0F9F1F0895FC0161503B
S11332E0704001900110D8F7809590958E0F9F1F24
S11332F008950F931F93CF93DF93FB01238121FD47
S113330003C08FEF9FEF2CC022FF16C04681578168
S1133310248135814217530744F4A081B1819D0172
S11333202F5F3F4F318320838C93268137812F5F1A
S11333303F4F3783268314C08B01EC01FB010084CB
S1133340F185E02D0995892BE1F6D80116968D912A
S11333509C911797019617969C938E931697CE017E
S1133360DF91CF911F910F910895FA01AA27283078
S113337051F1203181F1E8946F936E7F6E5F7F4F3E
S11333808F4F9F4FAF4FB1E03ED0B4E03CD0670FBA
S1133390781F891F9A1FA11D680F791F8A1F911D0D
S11333A0A11D6A0F711D811D911DA11D20D009F45D
S11333B068943F912AE0269F11243019305D31939F
S11333C0DEF6CF010895462F4770405D4193B3E088
S11333D00FD0C9F7F6CF462F4F70405D4A3318F02F
S11333E0495D31FD4052419302D0A9F7EACFB4E0E0
S11333F0A6959795879577956795BA95C9F7009798
S11334006105710508959B01AC010A2E0694579538
S1133410479537952795BA95C9F7620F731F841F8F
S1133420951FA01D08952F923F924F925F926F9225
S11334307F928F929F92AF92BF92CF92DF92EF9240
S1133440FF920F931F93CF93DF93CDB7DEB7CA1BC1
S1133450DB0B0FB6F894DEBF0FBECDBF09942A88EC
S1133460398848885F846E847D848C849B84AA8494
S1133470B984C884DF80EE80FD800C811B81AA8121
S1133480B981CE0FD11D0FB6F894DEBF0FBECDBFEC
S10B3490ED010895F894FFCF4B
S113349800004F04200001720C0D01BD110840000A
S11334A8000080C8031B5B3F32356C1B5B481B5B09
S11334B84A1B5B48001B005B003B00203D200020AA
S11334C82020202020007468726F74746C65526523
S11334D86164696E673A2025730070756C7365447E
S11334E875726174696F6E52656164696E673A20BA
S11334F8257300000000002B03A809000000002B1E
S113350803A809000000003B08A809DE07F807EA39
S11335180782080D0A006E616E00696E66006F7698
S107352866002E0007
S9030000FC
