:100000000C9411030C940B0E0C94320E0C943903C7
:100010000C9439030C9439030C9439030C94390370
:100020000C9439030C9439030C9439030C94390360
:100030000C9439030C9439030C9439030C94390350
:100040000C94590E0C9439030C94640B0C94960B7D
:100050000C9439030C9439030C9439030C94390330
:100060000C9439030C94390322042F044F043C04EC
:1000700045044F045C0400407A10F35A00A0724E0D
:1000800018090010A5D4E80000E87648170000E43D
:100090000B54020000CA9A3B000000E1F505000085
:1000A00080969800000040420F000000A0860100EA
:1000B0000000102700000000E803000000006400BA
:1000C000000000000A000000000001000000000025
:1000D0002C76D888DC674F0823DFC1DFAE59E1B149
:1000E000B796E5E3E453C63AE651997696E8E6C258
:1000F0008426EB898C9B62ED407C6FFCEFBC9C9F5F
:1001000040F2BAA56FA5F490055A2AF75C936B6C80
:10011000F9676DC11BFCE0E40D47FEF520E6B50074
:10012000D0ED902E0300943577050080841E0800E2
:1001300000204E0A000000C80C333333330F986E92
:1001400012831141EF8D2114893BE65516CFFEE64F
:10015000DB18D1844B381BF77C1D901DA4BBE42415
:10016000203284725E228100C9F124ECA1E53D2792
:100170000000000800020100000304070000000066
:100180000000000001020408102040800102040861
:1001900010200102040810200404040404040404D0
:1001A0000202020202020303030303030000000031
:1001B00023002600290000000000250028002B0055
:1001C00000000000240027002A00FFE0FFD1AFFF5D
:1001D00032FFD0FFFEFFE0FFD1AEFFD0FFFEFFE019
:1001E000FFD11000FFFEFFD0FFE0FFC1FFD1AED571
:1001F00080A83FD300408D142000A1C8DA1281CF1F
:10020000D9F1DB402EA4A6AFFFD0FFFE000A0AFF03
:10021000FE05016C02C8207FFE07FE06FE000000FE
:100220000200000106060301008080808000800338
:100230000303040004A0A0A005050506000050F873
:1002400050F8500307070400FF4060804020C04082
:10025000050505060000C8D02058980506060600CA
:100260000040A040A0906801030302000480808049
:100270000207070300FF408080808080400207075C
:100280000300FF804040404040800303030400031C
:10029000A040A003030305010140E0400203030363
:1002A00000FEC04080030101040002E001010102E0
:1002B0000000800306060400FF20204040808003E9
:1002C000050504000040A0A0A040020505030000B1
:1002D00040C040404004050505000060902040F00B
:1002E000040505050000E0106010E00405050500A8
:1002F000009090907010040505050000F080E0105B
:10030000E00405050500006080E090600405050537
:100310000000F0102040800405050500006090609A
:1003200090600405050500006090701060010303F3
:100330000301008000800205050300FE40004040EC
:1003400080040505050000106080601003030304AD
:100350000001E000E00405050500008060106080F9
:1003600004060605000060902040004005060606D1
:1003700000007088A8B0807004050505000060903A
:1003800090F090040505050000E090E090E0040581
:10039000050500006090809060040505050000E000
:1003A000909090E0040505050000F080E080F004E6
:1003B0000505050000F080E08080040505050000CB
:1003C0006080B090600405050500009090F090906A
:1003D000030505040000E0404040E0040505050079
:1003E000007010109060040505050000909090E0EA
:1003F0009003050504000080808080E00505050667
:100400000000D8A8A8A8880405050500009090D091
:10041000B09004050505000060909090600405050B
:10042000050000E09090E080040505050000609064
:100430009050E0040505050000E09090E090030571
:100440000504000060804020C0030505040000E0B2
:1004500040404040040505050000909090906005E4
:1004600005050600008850505020050505060000CF
:10047000888888A850040505050000909090609039
:100480000406060500FF90909070106004050505B5
:100490000000F0204080F00207070300FFC08080CA
:1004A000808080C00306060400FF8080404020203A
:1004B0000207070300FFC04040404040C003020263
:1004C00004000440A00401010500FFF00202020341
:1004D000000580400404040500006090907004054D
:1004E0000505000080E090906003040404000060B3
:1004F0008080600405050500001070909060040481
:10050000040500006090A0700405050500006090DF
:1005100080C0800406060500FE60909070106004A4
:10052000050505000080E09090900105050200009F
:10053000800080808003070703FFFE20002020202A
:1005400020C003050504000080A0C0A0A00105058F
:100550000200008080808080050404060000D0A88E
:10056000A888040404050000E090909004040405A9
:100570000000609090600406060500FE609090E028
:1005800080800406060500FE609090701010040440
:1005900004050000E0908080040404050000704021
:1005A00020E003050504000040E04040400404044E
:1005B0000500009090907004040405000090909055
:1005C0006005040406000088A8A85004040405007F
:1005D00000909060900406060500FE9090907010C8
:1005E00060040404050000F02040F0030707040045
:1005F000FF204040804040200107070200FF80802C
:1006000080808080800307070400FF8040402040F6
:10061000408005030306000140A810FF2607C60B13
:100620009D0711241FBECFEFD8E0DEBFCDBF11E084
:10063000A0E0B1E0ECE8FCE302C005900D92A03F21
:10064000B107D9F724E0A0EFB1E001C01D92A838AE
:10065000B207E1F713E0C0E1D3E004C02197FE0147
:100660000E948119CE30D107C9F70E94F40B0C9477
:10067000391E0C94000080E192E00C94F115CF93A8
:10068000DF93EC01262F4CAD6BAD04960E9408134E
:100690009BAD890F8BAF81E090E0DF91CF91089502
:1006A0008F929F92AF92BF92CF92DF92EF92FF9282
:1006B0000F931F93CF93DF938C0169E171E08BE57A
:1006C00093E00E94500C48018EE5880E911CE12CAD
:1006D000F12C87E1A82EB12CF80180819181E816D8
:1006E000F9060CF045C0F401C190D1904F01E6012C
:1006F00009900020E9F72197CC19DD0969E271E042
:100700008BE593E00E94500C6BE271E08BE593E087
:100710000E94500CB70177276F5F7F4F4AE050E08F
:100720008BE593E00E94040D6DE271E08BE593E0B0
:100730000E94500CB5016C1B7D0B4AE050E08BE52C
:1007400093E00E94B60C67E271E08BE593E00E94B3
:10075000500CB6018BE593E00E94500C6FE271E003
:100760008BE593E00E94500CFFEFEF1AFF0AB4CF25
:1007700080912B0290912C02A0912D02B0912E021B
:10078000F80186839783A087B187128ADF91CF9182
:100790001F910F91FF90EF90DF90CF90BF90AF909F
:1007A0009F908F900895CF92DF92EF92FF920F93D8
:1007B0001F93CF93DF938C01EC016C0185E4C80E8D
:1007C000D11CE12CF12CD8018D919C91E816F906F1
:1007D0000CF084C069E271E08BE593E00E94500C5C
:1007E0006BE271E08BE593E00E94500CB701772734
:1007F0006F5F7F4F4AE050E08BE593E00E94040D6D
:100800006DE271E08BE593E00E94500C4AE050E00D
:100810006AE170E08BE593E00E94040D67E271E00D
:100820008BE593E00E94500CD601ED916D018E2F67
:1008300090E08730910508F046C0FC01EC5CFF4F6A
:100840000C948119EB89FC8940815181628173810B
:100850002AE030E08BE593E00E94BC0C34C0EB89C9
:10086000FC8940815181628173812AE030E08BE50F
:1008700093E00E94A20C27C0EB89FC896081718102
:100880008BE593E00E94500C1EC0EB89FC894AE086
:1008900050E060818BE593E00E94AF0C14C0EB89BF
:1008A000FC89408151816281738122E030E08BE5D7
:1008B00093E00E94E80D07C0EB89FC8960818BE51D
:1008C00093E00E94520C63E371E08BE593E00E9499
:1008D000500CBFEFEB1AFB0A229675CF80912B02CA
:1008E00090912C02A0912D02B0912E02F8018283EA
:1008F0009383A483B583DF91CF911F910F91FF90D4
:10090000EF90DF90CF9008950E94A30E60930802AD
:100910007093090280930A0290930B0280910C025B
:1009200090910D02A0910E02B0910F020196A11DAF
:10093000B11D80930C0290930D02A0930E02B09310
:100940000F0208950C94840426E040E052EC61E02C
:1009500070E08BE593E00E94FF0A86E792E00E9438
:1009600082088FE592E00E94820861E083E00E94A5
:10097000550F62EA74E080E192E00E948616809151
:100980001002823021F0833021F08FEF03C080E02D
:1009900001C081E041E050E06BE373E00E94EB0DA9
:1009A00081E080935A0381E293E00C9467140F93E3
:1009B0001F93CF9361E081E293E00E94B114809194
:1009C0005A03811107C081E080935A0381E293E0CA
:1009D0000E94671481E293E00E948C146CE072E044
:1009E00081E293E00E946F130FE212E0C1E0809178
:1009F0003C03C89F802D1124109258038093590303
:100A0000B8018DE193E00E94420CCF5F0A5F1F4F57
:100A1000C93069F781E293E00E9491148111DECF21
:100A2000CF911F910F910895CF92DF92EF92FF9295
:100A30000F931F93CF93DF93CDB7DEB72C970FB6ED
:100A4000F894DEBF0FBECDBF0E94A30E60930402D8
:100A50007093050280930602909307020E94AF0EE6
:100A6000609300027093010280930202909303024C
:100A700000910402109105022091060230910702B4
:100A8000C090FC01D090FD01E090FE01F090FF01CC
:100A90000C191D092E093F090093F8011093F90163
:100AA0002093FA013093FB010091F4011091F501BC
:100AB0002091F6013091F701DC01CB01801B910BF5
:100AC000A20BB30B8093F0019093F101A093F2017C
:100AD000B093F3010E94A30E60932B0270932C023B
:100AE00080932D0290932E0200918F02109190021C
:100AF00020919102309192026B017C01C01AD10ABF
:100B0000E20AF30A0091970210919802209199024B
:100B100030919A02C016D106E206F30650F1009118
:100B20009302109194022091950230919602DC017B
:100B3000CB01801B910BA20BB30B00919B02109178
:100B40009C0220919D0230919E0280179107A2077E
:100B5000B30718F081E080939F0280919F02882361
:100B600021F08DE892E00E9450038DE892E00E940F
:100B7000D303C0900402D0900502E0900602F090EA
:100B800007026AE371E0CE0107960E945710BE018A
:100B9000695F7F4FCE0101960E948310B701A601C5
:100BA000CE0101960E941C11BC018FE292E00E94CE
:100BB0006C10CE0101960E94E90FCE0107960E94AB
:100BC000E90FC0900002D0900102E0900202F09084
:100BD00003026AE471E0CE0107960E945710BE013D
:100BE000695F7F4FCE0101960E948310B701A60175
:100BF000CE0101960E941C11BC0185E392E00E9487
:100C00006C10CE0101960E94E90FCE0107960E945A
:100C1000E90FC090F801D090F901E090FA01F0904E
:100C2000FB016AE571E0CE0107960E945710BE01F4
:100C3000695F7F4FCE0101960E948310B701A60124
:100C4000CE0101960E941C11BC018BE392E00E9430
:100C50006C10CE0101960E94E90FCE0107960E940A
:100C6000E90FC090F001D090F101E090F201F09016
:100C7000F30168E671E0CE0107960E945710BE01AD
:100C8000695F7F4FCE0101960E948310B701A601D4
:100C9000CE0101960E941C11BC0181E492E00E94E9
:100CA0006C10CE0101960E94E90FCE0107960E94BA
:100CB000E90F86E792E00E94AD086B017C0166E7D0
:100CC00071E0CE0107960E945710BE01695F7F4F09
:100CD000CE0101960E948310B701A601CE010196B4
:100CE0000E942A11BC0187E492E00E946C10CE01A0
:100CF00001960E94E90FCE0107960E94E90F8FE549
:100D000092E00E94AD086B017C0168E871E0CE01C1
:100D100007960E945710BE01695F7F4FCE01019672
:100D20000E948310B701A601CE0101960E942A11EC
:100D3000BC018DE492E00E946C10CE0101960E94ED
:100D4000E90FCE0107960E94E90FC0900C02D090E7
:100D50000D02E0900E02F0900F026FE971E0CE01FB
:100D600007960E945710BE01695F7F4FCE01019622
:100D70000E948310B701A601CE0101960E941C11AA
:100D8000BC0183E592E00E946C10CE0101960E94A6
:100D9000E90FCE0107960E94E90FC0900802D0909B
:100DA0000902E0900A02F0900B026EEA71E0CE01B7
:100DB00007960E945710BE01695F7F4FCE010196D2
:100DC0000E948310B701A601CE0101960E941C115A
:100DD000BC0189E592E00E946C10CE0101960E9450
:100DE000E90FCE0107960E94E90F0E94D704809177
:100DF000040290910502A0910602B091070280932F
:100E0000FC019093FD01A093FE01B093FF0180913E
:100E1000000290910102A0910202B091030280931E
:100E2000F4019093F501A093F601B093F7012C968D
:100E30000FB6F894DEBF0FBECDBFDF91CF911F91EB
:100E40000F91FF90EF90DF90CF9008950F931F9335
:100E5000CF93DF931092200310921F0382EC91E056
:100E600090931E0380931D0342E16BE071E08DE1DE
:100E700093E00E9438118AEC91E090931E038093D6
:100E80001D0310928E0210928D0280912B02909180
:100E90002C02A0912D02B0912E0280938F0290938C
:100EA0009002A0939102B09392028AEF90E0A0E0AA
:100EB000B0E08093970290939802A0939902B09328
:100EC0009A0288E893E1A0E0B0E080939B029093BF
:100ED0009C02A0939D02B0939E0281E080939F02AA
:100EE0002FE030E040E050E06EE086E792E00E94C4
:100EF000B7072FE030E040E050E06FE08FE592E090
:100F00000E94B707CFE2D2E00FE512E060EE71E099
:100F1000CE010E94571026960C171D07B9F704E161
:100F200010E021E042E062E080E192E00E94B91529
:100F3000DF91CF911F910F910895CF93DF93CFE56C
:100F4000D2E02697CE010E94E90F82E0CF32D80787
:100F5000C1F780916002909161020E943F1A8091D6
:100F6000770290917802DF91CF910C943F1ACF9243
:100F7000DF92EF92FF921F93CF93DF93EC01162F36
:100F800069017A012F87388B498B5A8B1B861C8607
:100F90001D861E86C901880F991F880F991F0E9400
:100FA000A71989839A831F82188619861A861B823D
:100FB0001C821D821E82FC0180E090E0DC01C816CC
:100FC000D906EA06FB0641F0119211921192119294
:100FD0000196A11DB11DF3CF1883CB8ADC8AED8A5F
:100FE000FE8ADF91CF911F91FF90EF90DF90CF901D
:100FF00008954F925F926F927F928F929F92AF92DD
:10100000BF92CF92DF92EF92FF920F931F93CF93F5
:10101000DF93EC0188810E940F0FBC01990F880BB0
:10102000990B0E94AD092B013C018B859C85AD85F8
:10103000BE858F849888A988BA8809811A81881505
:101040009905AA05BB0540F40196A11DB11D8B872A
:101050009C87AD87BE8716C0EF81F885EE0FFF1F16
:10106000EE0FFF1FE00FF11F20813181428153817C
:101070006B817C818D819E810E94CC086B837C83F7
:101080008D839E83CF80D884E984FA84C601880F3B
:10109000991F880F991FF801E80FF91F40825182AC
:1010A00062827382A30192016B817C818D819E811A
:1010B0000E94CD086B837C838D839E838FEFC81A3B
:1010C000D80AE80AF80AC814D904EA04FB0428F488
:1010D000CF82D886E986FA8604C01F8218861986D0
:1010E0001A86DF91CF911F910F91FF90EF90DF90C3
:1010F000CF90BF90AF909F908F907F906F905F90B8
:101100004F900895CF92DF92EF92FF92CF93DF93AB
:10111000EC0160E088810E94550F80E090E0DC01E6
:101120006C017D012FEFC21AD20AE20AF20A4B8942
:101130005C896D897E8984179507A607B70730F407
:10114000CE010E94F907D701C601EACFDF91CF9106
:10115000FF90EF90DF90CF900895CF93DF93EC0155
:101160000E94F9076B857C858D859E8561157105CB
:101170008105910559F00E94AB099B01AC016B817F
:101180007C818D819E810E94390903C060E070E0FE
:10119000CB01DF91CF9108955058BB27AA270E9419
:1011A000E4080C94FF090E94F10938F00E94F80944
:1011B00020F039F49F3F19F426F40C94EE090EF454
:1011C000E095E7FB0C94E809E92F0E94100A58F318
:1011D000BA17620773078407950720F079F4A6F51C
:1011E0000C94320A0EF4E0950B2EBA2FA02D0B01B1
:1011F000B90190010C01CA01A0011124FF27591B5C
:1012000099F0593F50F4503E68F11A16F040A22F61
:10121000232F342F4427585FF3CF469537952795D2
:10122000A795F0405395C9F77EF41F16BA0B620BD1
:10123000730B840BBAF09150A1F0FF0FBB1F661F18
:10124000771F881FC2F70EC0BA0F621F731F841F5B
:1012500048F4879577956795B795F7959E3F08F081
:10126000B0CF9395880F08F09927EE0F9795879543
:1012700008950E944D090C94FF090E94F80958F046
:101280000E94F10940F029F45F3F29F00C94E8092D
:1012900051110C94330A0C94EE090E94100A68F361
:1012A0009923B1F3552391F3951B550BBB27AA271F
:1012B00062177307840738F09F5F5F4F220F331F59
:1012C000441FAA1FA9F335D00E2E3AF0E0E832D021
:1012D00091505040E695001CCAF72BD0FE2F29D024
:1012E000660F771F881FBB1F261737074807AB07F6
:1012F000B0E809F0BB0B802DBF01FF2793585F4F6B
:101300003AF09E3F510578F00C94E8090C94330AAA
:101310005F3FE4F3983ED4F3869577956795B7954C
:10132000F7959F5FC9F7880F911D9695879597F957
:101330000895E1E0660F771F881FBB1F62177307D0
:101340008407BA0720F0621B730B840BBA0BEE1FE5
:1013500088F7E0950895E89409C097FB3EF49095CE
:101360008095709561957F4F8F4F9F4F9923A9F07E
:10137000F92F96E9BB279395F6958795779567950D
:10138000B795F111F8CFFAF4BB0F11F460FF1BC051
:101390006F5F7F4F8F4F9F4F16C0882311F096E9E4
:1013A00011C0772321F09EE8872F762F05C0662392
:1013B00071F096E8862F70E060E02AF09A95660F4B
:1013C000771F881FDAF7880F9695879597F9089504
:1013D00097F99F6780E870E060E008959FEF80ECE8
:1013E000089500240A94161617061806090608958B
:1013F00000240A9412161306140605060895092EF1
:101400000394000C11F4882352F0BB0F40F4BF2B5F
:1014100011F460FF04C06F5F7F4F8F4F9F4F08959F
:1014200057FD9058440F551F59F05F3F71F0479595
:10143000880F97FB991F61F09F3F79F0879508957A
:10144000121613061406551FF2CF4695F1DF08C099
:10145000161617061806991FF1CF869571056105B6
:1014600008940895E894BB2766277727CB0197F95E
:101470000895FC01918D228D892F90E0805C9F4F13
:10148000821B91098F7399270895FC01918D828D9C
:10149000981731F0828DE80FF11D858D90E0089549
:1014A0008FEF9FEF0895FC01918D828D981761F069
:1014B000828DDF01A80FB11D5D968C91928D9F5F8B
:1014C0009F73928F90E008958FEF9FEF08958CEBBC
:1014D0009BE0892B49F080E090E0892B29F00E9465
:1014E000BC0B81110C9400000895FC01848DDF0178
:1014F000A80FB11DA35ABF4F2C91848D90E0019687
:101500008F739927848FA689B7892C93A089B18975
:101510008C9180648C93938D848D981306C002887F
:10152000F389E02D80818F7D80830895EF92FF9273
:101530000F931F93CF93DF93EC0181E0888F9B8DF6
:101540008C8D981305C0E889F989808185FD24C0B8
:10155000F62E0B8D10E00F5F1F4F0F731127E02E3B
:101560008C8DE8120CC00FB607FCFACFE889F98918
:10157000808185FFF5CFCE010E94750AF1CF8B8D5A
:10158000FE01E80FF11DE35AFF4FF0820B8FEA894D
:10159000FB898081806207C0EE89FF896083E889CA
:1015A000F98980818064808381E090E0DF91CF9130
:1015B0001F910F91FF90EF900895CF93DF93EC016F
:1015C000888D8823C9F0EA89FB89808185FD05C063
:1015D000A889B9898C9186FD0FC00FB607FCF5CF9D
:1015E000808185FFF2CFA889B9898C9185FFEDCFE5
:1015F000CE010E94750AE7CFDF91CF910895CF9277
:10160000DF92EF92FF921F93CF93DF93EC016A0179
:101610007B01122FE889F98982E080834115514EC0
:1016200061057105B1F060E079E08DE390E0A7011C
:1016300096010E945F19DA01C9010197A109B10958
:10164000B695A795979587959C01211580E1380758
:10165000A8F0E889F989108260E874E88EE190E0EA
:10166000A70196010E945F19DA01C9010197A1093A
:10167000B109B695A795979587959C01EC85FD8551
:101680003083EE85FF852083188EEC89FD891083D9
:10169000EA89FB89808180618083EA89FB89808176
:1016A00088608083EA89FB89808180688083EA89F9
:1016B000FB8980818F7D8083DF91CF911F91FF9087
:1016C000EF90DF90CF9008951F920F920FB60F9278
:1016D00011242F938F939F93EF93FF93E0916B03CC
:1016E000F0916C038081E0917103F091720382FDAF
:1016F00012C09081809174038F5F8F732091750366
:10170000821751F0E0917403F0E0E55AFC4F958F99
:101710008093740301C08081FF91EF919F918F911D
:101720002F910F900FBE0F901F9018951F920F9240
:101730000FB60F9211242F933F934F935F936F93A4
:101740007F938F939F93AF93BF93EF93FF938BE51B
:1017500093E00E94750AFF91EF91BF91AF919F9125
:101760008F917F916F915F914F913F912F910F904A
:101770000FBE0F901F9018958BE593E00E94390AD9
:1017800021E0892B09F420E0822F0895EBE5F3E0B6
:101790001382128288EE93E0A0E0B0E08483958308
:1017A000A683B78382ED91E09183808385EC90E0FE
:1017B0009587848784EC90E09787868780EC90E01B
:1017C000918B808B81EC90E0938B828B82EC90E00C
:1017D000958B848B86EC90E0978B868B118E128E86
:1017E000138E148E089508950E94D40E0E94F30B58
:1017F0000E94A404C7E6DAE00E9414052097E1F3F2
:101800000E94670AF9CFCF92DF92EF92FF920F9377
:101810001F93CF93DF936C017A018B01C0E0D0E07E
:10182000CE15DF0581F0D8016D918D01D601ED91C6
:10183000FC910190F081E02DC6010995892B11F0F2
:101840002196EECF7E01C701DF91CF911F910F91BD
:10185000FF90EF90DF90CF9008956115710579F0BA
:10186000FB0101900020E9F73197AF01461B570BB0
:10187000DC01ED91FC910280F381E02D099480E080
:1018800090E00895DB0114964D915C9115976D9150
:101890007C91DC01ED91FC910280F381E02D0994B3
:1018A0000C942D0CDC01ED91FC910190F081E02D68
:1018B00009948F929F92AF92BF92EF92FF920F93F3
:1018C0001F93CF93DF93CDB7DEB7A1970FB6F894F0
:1018D000DEBF0FBECDBF7C01FA01CB0119A22230C1
:1018E00008F42AE08E010F5D1F4F822E912CA12C4F
:1018F000B12CBF01A50194010E945F19F901CA0131
:10190000015011096A3010F4605D01C0695CD801B2
:101910006C93232B242B252B61F7B801C7010E9460
:101920002D0CA1960FB6F894DEBF0FBECDBFDF9190
:10193000CF911F910F91FF90EF90BF90AF909F902C
:101940008F9008952115310541F4DC01ED91FC9152
:101950000190F081E02D642F09940C94590C9A01A8
:10196000462F50E060E070E00C94A20C9A01AB01AD
:1019700060E070E00C94A20CCF92DF92EF92FF92A5
:101980000F931F93CF93DF932115310581F4DC0171
:10199000ED91FC910190F081E02D642FDF91CF91CA
:1019A0001F910F91FF90EF90DF90CF9009942A3014
:1019B000310501F577FF1DC06A017B01EC016DE285
:1019C0000E94520C8C0144275527BA014C195D091D
:1019D0006E097F092AE0CE010E94590C800F911FE9
:1019E000DF91CF911F910F91FF90EF90DF90CF90FB
:1019F00008952AE0DF91CF911F910F91FF90EF9012
:101A0000DF90CF900C94590C9A01AB01770F660BC5
:101A1000770B0C94BC0C7F928F929F92AF92BF92E7
:101A2000CF92DF92EF92FF920F931F93CF93DF93AA
:101A30008C016A017B01722E9A01AB01C701B601CC
:101A40000E945A19882319F061EE71E027C04601FF
:101A50005701E894B7F82FEF3FEF4FE75FE7C50175
:101A6000B4010E945A1981110DC02FEF3FEF4FE7CB
:101A70005FE7C501B4010E94891818161CF465EED1
:101A800071E00CC02FEF3FEF4FE75FE4C701B601F5
:101A90000E94E818181694F469EE71E0C801DF910D
:101AA000CF911F910F91FF90EF90DF90CF90BF905B
:101AB000AF909F908F907F900C942D0C2FEF3FEF65
:101AC0004FE75FECC701B6010E94891887FDE4CF9C
:101AD00020E030E0A901C701B6010E94891887FF04
:101AE0000AC06DE2C8010E94520CEC01F7FAF094B2
:101AF000F7F8F09402C0C0E0D0E0B12C60E070E0F4
:101B000080E09FE37B1441F020E030E040E251E4CC
:101B10000E943909B394F6CFA70196010E94CD081F
:101B20006B017C010E9495184B015C012AE0AB011E
:101B3000BC01C8010E94590CC80FD91F7720C9F1F8
:101B4000C501B4010E94AB099B01AC01C701B601FC
:101B50000E94CC086B017C016DEE71E0C8010E940F
:101B60002D0CC80FD91F20E030E040E251E4C7013E
:101B7000B6010E94ED184B015C010E948E186B01AA
:101B80007C014AE050E0C8010E94040DC80FD91F33
:101B9000B601DD0C880B990B0E94AD099B01AC01CD
:101BA000C501B4010E94CC086B017C017A947110CC
:101BB000DACFCE01DF91CF911F910F91FF90EF907F
:101BC000DF90CF90BF90AF909F908F907F900895BF
:101BD0000C940B0D08958230E8F4E82FF0E0EE0F3E
:101BE000FF1FEA5FFE4F71836083813041F0809177
:101BF00069008C7F482B40936900E89A0895809192
:101C00006900837F440F551F440F551F482B409395
:101C10006900E99A08951F920F920FB60F9211244E
:101C20002F933F934F935F936F937F938F939F93E4
:101C3000AF93BF93EF93FF93E0910601F0910701FB
:101C40000995FF91EF91BF91AF919F918F917F91F6
:101C50006F915F914F913F912F910F900FBE0F9019
:101C60001F9018951F920F920FB60F9211242F9369
:101C70003F934F935F936F937F938F939F93AF9314
:101C8000BF93EF93FF93E0910801F091090109954B
:101C9000FF91EF91BF91AF919F918F917F916F9144
:101CA0005F914F913F912F910F900FBE0F901F901A
:101CB00018951F920F920FB60F9211242F933F93F6
:101CC0008F939F93AF93BF938091F9039091FA0301
:101CD000A091FB03B091FC033091F80323E0230FA4
:101CE0002D3720F40196A11DB11D05C026E8230F54
:101CF0000296A11DB11D2093F8038093F9039093E0
:101D0000FA03A093FB03B093FC038091FD03909131
:101D1000FE03A091FF03B09100040196A11DB11D27
:101D20008093FD039093FE03A093FF03B093000400
:101D3000BF91AF919F918F913F912F910F900FBEC7
:101D40000F901F9018952FB7F8946091F903709138
:101D5000FA038091FB039091FC032FBF08953FB7D6
:101D6000F8948091FD039091FE03A091FF03B09140
:101D7000000426B5A89B05C02F3F19F00196A11DB0
:101D8000B11D3FBFBA2FA92F982F8827820F911D11
:101D9000A11DB11DBC01CD0142E0660F771F881F58
:101DA000991F4A95D1F70895789484B5826084BDCF
:101DB00084B5816084BD85B5826085BD85B581604F
:101DC00085BDEEE6F0E0808181608083E1E8F0E0AF
:101DD0001082808182608083808181608083E0E8DE
:101DE000F0E0808181608083E1EBF0E080818460BD
:101DF0008083E0EBF0E0808181608083EAE7F0E0BF
:101E00008081846080838081826080838081816022
:101E100080838081806880831092C10008958E3015
:101E200008F08E5020910A0190E4299F900111241E
:101E30008770822B80937C0080917A0080648093ED
:101E40007A0080917A0086FDFCCF80917800209105
:101E5000790090E0922B0895833081F028F481304E
:101E600099F08230A1F008958730A9F08830B9F058
:101E70008430D1F4809180008F7D03C080918000F8
:101E80008F7780938000089584B58F7702C084B5E2
:101E90008F7D84BD08958091B0008F7703C08091BD
:101EA000B0008F7D8093B0000895CF93DF9390E0D2
:101EB000FC01EC57FE4F2491FC01E856FE4F849143
:101EC000882361F190E0880F991FFC01E054FE4FD8
:101ED000C591D491FC01EA54FE4FA591B4916111D2
:101EE00009C09FB7F8948881209582238883EC915C
:101EF0002E230BC0623061F49FB7F8948881322F93
:101F0000309583238883EC912E2B2C939FBF06C0A2
:101F10008FB7F894E8812E2B28838FBFDF91CF9164
:101F200008951F93CF93DF93282F30E0F901E059F4
:101F3000FE4F8491F901EC57FE4FD491F901E85618
:101F4000FE4FC491CC23C1F0162F81110E942C0F9B
:101F5000EC2FF0E0EE0FFF1FEA54FE4FA591B49175
:101F60009FB7F894111104C08C91D095D82302C06A
:101F7000EC91DE2BDC939FBFDF91CF911F910895F1
:101F8000CF93DF93282F30E0F901E059FE4F849181
:101F9000F901EC57FE4FD491F901E856FE4FC49178
:101FA000CC2391F081110E942C0FEC2FF0E0EE0F6A
:101FB000FF1FE455FE4FA591B491EC91ED2381E014
:101FC00090E021F480E002C080E090E0DF91CF91CA
:101FD0000895FC01808191810C943F1ACF93DF9387
:101FE000EC0188819981009711F00E943F1A1982B3
:101FF00018821D821C821B821A82DF91CF91089564
:102000000F931F93CF93DF93EC018B016F5F7F4F93
:10201000888199810E94C81A009731F0998388833A
:102020001B830A8381E001C080E0DF91CF911F9183
:102030000F910895CF93DF93EC0188819981892BCB
:1020400029F08A819B818617970760F4CE010E9450
:102050000010882341F08C819D81892B19F4E8813F
:10206000F981108281E0DF91CF910895EF92FF9284
:102070000F931F93CF93DF93EC017B018A01BA0189
:102080000E941A10811104C0CE010E94EE0F07C0F9
:102090001D830C83B701888199810E94971BCE0113
:1020A000DF91CF911F910F91FF90EF900895FC0168
:1020B00011821082138212821582148261157105B9
:1020C00051F0FB0101900020E9F73197AF01461B69
:1020D000570B0C9436100895CF93DF93EC01FB015E
:1020E0008617970761F0608171816115710529F08C
:1020F000448155810E94361002C00E94EE0FCE012D
:10210000DF91CF910895FC01118210821382128217
:10211000158214820C946C10EF92FF920F931F9310
:10212000CF93DF936115710511F480E01CC0411558
:102130005105C1F07B01EC018C819D818A01080F62
:10214000191FB801CE010E941A10882371F328814B
:1021500039818C819D81B701820F931F0E94971B4B
:102160001D830C8381E0DF91CF911F910F91FF9030
:10217000EF900895EF92FF920F931F93CF93DF9309
:10218000CDB7DEB72D970FB6F894DEBF0FBECDBF2B
:102190007C01CB01BA012AE08E010F5F1F4FA8011D
:1021A0000E949E1BF80101900020E9F73197AF01D2
:1021B000401B510BB801C7010E948C102D960FB621
:1021C000F894DEBF0FBECDBFDF91CF911F910F916D
:1021D000FF90EF900895EF92FF920F931F93CF938C
:1021E000DF93CDB7DEB764970FB6F894DEBF0FBEAE
:1021F000CDBF7C01CB01BA018E010F5F1F4F22E0E2
:1022000044E00E948719FC0101900020E9F7319712
:10221000AF01481B590BBC01C7010E948C1064968A
:102220000FB6F894DEBF0FBECDBFDF91CF911F91E7
:102230000F91FF90EF900895CF93DF93EC010E94F0
:10224000BA10811103C0CE010E94EE0FCE01DF91C2
:10225000CF910895CF93DF93EC010E94EB10811191
:1022600003C0CE010E94EE0FCE01DF91CF91089501
:10227000FC0113AE14AE15AE04960C947714AF9215
:10228000BF92CF92DF92FF920F931F93CF93DF9372
:102290008C01EB01F42E690180E14817B1F184173C
:1022A00070F0EAE04E133CC042E0C8010E94AC1658
:1022B00046EE51E0BE01C8010E94EB1631C0F1E1CB
:1022C0004F1731F185E148132BC0AA80BB804EED3A
:1022D00051E0C8010E94EB16F5014481406BBE013C
:1022E000C8010E94DB1641E0BE01C8010E94D2165F
:1022F000AE01B801C5010E94FB14882301F140E042
:10230000BE01C8010E94B5160BC045ED51E002C0E8
:102310004AEC51E0BE01C8010E94EB1681E00FC0FB
:1023200096014F2DBE01C801DF91CF911F910F91F2
:10233000FF90DF90CF90BF90AF900C946715DF9126
:10234000CF911F910F91FF90DF90CF90BF90AF90F2
:102350000895FC01E60FF11D849190E0982F8827E5
:102360003196E4918E0F911D0895FC01849108959A
:102370000E94B511882321F0823011F083E0089586
:1023800086E0089580E0089566E00C94A91168E065
:102390000C94A9110A96FC01849108950B96FC01F6
:1023A00084910895BF92CF92DF92EF92FF920F93A4
:1023B0001F93CF93DF938C01E62EDC011496CD9111
:1023C000DC911597CE010E94B511F82EF801848199
:1023D00095810E94B811C82EF1E0FF1203C02FE0D2
:1023E000B22E02C0BB24BA94D80114968D919C9150
:1023F00015970E94CA11F82EF801848195810E94D8
:10240000CE11D82ED80114968D919C9115970E94CB
:10241000C711B0E6BE1538F4009729F0C80FD91FD0
:1024200091E6F92E10C0F801848195810E94C411B3
:10243000F0E4FE1538F4009729F0C80FD91F81E4A5
:10244000F82E01C06196DE1490F4D80150961C92CB
:10245000509753961C92539754961C9254975196AA
:102460001C92519752961C9280E090E067C0DF1456
:1024700060F38C2D90E0FE0124912F3F11F4219602
:1024800058C0FE104DC0D80114968D919C9115979F
:102490000E94B5119E012F5F3F4FFE01882311F06E
:1024A0008230E1F48491D80153968C935397F901CB
:1024B000249154962C935497FE013396E4915096B0
:1024C000EC935097FE013496E4915196EC9351971A
:1024D000FE013596E4915296EC9320C08491982F9A
:1024E0009F709250D80152969C93529782958F700C
:1024F00051968C935197F9012491822F8F705496A5
:102500008C93549722952F7053962C935397FE01DA
:102510003296E491E295EF705096EC93CE010EC0A6
:10252000FE013296E491EB219C012E0F311DC20F6A
:10253000D31FFD1409F489CFF3949DCFDF91CF9180
:102540001F910F91FF90EF90DF90CF90BF90089573
:102550006F927F928F929F92AF92BF92CF92DF92B3
:10256000EF92FF920F931F93CF93DF93EC01C62E50
:10257000742E622F0E94D2117C01892BC9F18C81AB
:102580009D810E94B811B82E1B890C898989C80EBB
:102590008A89781AD72CD01A212F4D2D6C2DCE0177
:1025A0000E948A16882311F1EB0CF11C195F169515
:1025B00016951695812E912C7D14C1F06C2C570127
:1025C0008A2D8E19811770F4F501049120E04D2DAC
:1025D000662DCE010E94A014FFEFAF1ABF0A88E05B
:1025E000680EEECFE80CF91CD394E6CF888901C0C1
:1025F00080E0DF91CF911F910F91FF90EF90DF90DE
:10260000CF90BF90AF909F908F907F906F900895E4
:10261000FF920F931F93CF93DF93EC01062F142F9C
:10262000F22EED89FE890995482F410F2F2D602F3D
:10263000CE01DF91CF911F910F91FF900C94A812C2
:10264000DC0114962D913C9115972115310509F463
:102650003FC057968C915797F901811108C0359664
:10266000E4915896EC935897F9013C9611C081304B
:1026700041F43F96E4915896EC935897F90170967F
:1026800007C03D96E4915896EC935897F9013E9611
:10269000E4915996EC93599758968C915897082E37
:1026A000000C990B59962C915997821B910927FD83
:1026B00093955A962C915A97203441F0829FC001ED
:1026C000112426E0969587952A95E1F75B968C93E1
:1026D000089522EC31E1FC01368B258B0895CF93D0
:1026E000DF93FC01248135812617370749F0EC017F
:1026F000758364830E94201382EC91E19E8B8D8B05
:10270000DF91CF9108951F93CF93DF93EC011D824A
:102710001C821F821E82198681E0888782E28A8756
:102720001F861E86FE01B396CE01C1962FEF219320
:10273000E817F907E1F711E018A3CE010E94691329
:102740001F8B188E198E80E48A8F1B8E8EEA95E17E
:102750009AAB89ABDF91CF911F910895DB01ED9189
:10276000FC9109940F931F93CF93DF93EC018B019E
:10277000E9A9FAA982E0099520E030E04AE0B80131
:10278000CE010E94AE13182FE9A9FAA983E009959A
:10279000E9A9FAA980E00995812FDF91CF911F91D6
:1027A0000F9108950F931F93CF93DF93EC018B014B
:1027B000E9A9FAA982E00995E9A9FAA981E00995B0
:1027C00020E030E044E1B801CE010E94AE139E014A
:1027D0002D5C3F4F47E1B801CE010E94AE13E9A93D
:1027E000FAA980E0DF91CF911F910F910994EF92A8
:1027F000FF921F93CF93DF93EC017B01E9A9FAA924
:1028000082E00995E9A9FAA981E0099520E030E084
:1028100045E1B701CE010E94AE13182F882341F085
:102820009E012D5C3F4F47E1B701CE010E94AE13E0
:10283000E9A9FAA980E00995812FDF91CF911F9135
:10284000FF90EF900895CF93DF931F92CDB7DEB73F
:102850009E012F5F3F4F46E40E94AE1389810F9087
:10286000DF91CF910895CF93DF931F92CDB7DEB75D
:102870009E012F5F3F4F47E40E94AE1389810F9066
:10288000DF91CF91089520E030E048E40C94AE133E
:10289000CF93DF93EC016A817B810E9423148883AC
:1028A0006A817B81CE010E94331489836A817B8196
:1028B000CE010E9443148B879E012D5C3F4F6A819D
:1028C0007B8147E1CE01DF91CF910C94AE13CF9382
:1028D000DF93EC016A817B810E94B213882321F08F
:1028E000CE010E94481481E0DF91CF910895EF92CC
:1028F000FF921F93CF93DF93EC017B01142F0E9473
:102900008313FB82EA821EA7CE01DF91CF911F9134
:10291000FF90EF900C946714FC01628173810C941A
:10292000D213CF93DF93EC01EE85FF85309709F04A
:1029300009956A817B81CE01DF91CF910C94F713C9
:102940000F93FC0182819381648F458F278F068FBF
:102950009F01245E3F4F4BE3BC01CF010F910C94CC
:10296000AE13FC0160A30895DC011696ED91FC9175
:10297000179715968C919F01280F311DC90111924F
:10298000E817F907E1F7089531E0FC0123812617E4
:1029900008F430E021E0FC018281481708F420E0CF
:1029A00091E0461708F090E0892F832B2823832F8E
:1029B0008923822B0895DC01FB01108212968C91F1
:1029C0001297818315968C91159781508283139667
:1029D0008C9183830895FB0141812381213029F06B
:1029E000233031F468EF640F04C0642F485F01C0E6
:1029F000642F0C94C414FC01CB01BA0126813781E9
:102A000045810C94E416DC011696ED91FC91179724
:102A100012968C91481B477081E090E001C0880FAE
:102A20004A95EAF7E60FF11D3081222311F0832B3E
:102A300002C08095832380830895FB014181DC01DE
:102A400012962C911297421768F013962C911397B7
:102A5000241740F0608115962C91621718F4248198
:102A60000C9403150895CF92DF92FF920F931F935A
:102A7000CF93DF936C01EB01FA808B81813051F0B1
:102A800030F0823049F0833051F41FEF09C010E07C
:102A900001E007C011E004C010E00FEF02C010E039
:102AA00000E0F7FE04C0BE01C6010E941D1588812A
:102AB000800F88838981810F8983FF0C91F7DF91D3
:102AC000CF911F910F91FF90DF90CF9008950F93BA
:102AD0001F93CF93DF938901FB01C281D3814233DE
:102AE000F9F068F4453109F1473141F1443181F59C
:102AF000CE010E94B414CE010E946C1829C0463445
:102B000011F1473411F14B3319F5B901CE010E948F
:102B1000EB148823E9F0B801CE010E94331518C0E8
:102B2000B901CE010E941D1513C0CE010E94731879
:102B3000882379F0CE010E94B4140AC0B901CE01F5
:102B40000E94DB1405C08D8101C08981F80180835A
:102B500081E0DF91CF911F910F910895089521E0B9
:102B6000FC012183623021F461E080810C94910F9B
:102B70000895EF92FF920F931F93CF93DF93EC0191
:102B8000862FF42EE22E688360E00E94550FEB82C0
:102B90001F870E870E94A30E6A877B878C879D877D
:102BA000F11002C0198204C06F2DCE010E94AF1532
:102BB0001A828981811102C081E08A83198A188A68
:102BC0001B8A1A8A1D8A1C8A1F8A1E8A198E188ED1
:102BD00081E08A8FDF91CF911F910F91FF90EF904D
:102BE00008950F931F93CF93DF93EC018A8180FFA9
:102BF00002C0826001C08D7F8A8388810E94C00FDD
:102C0000498150E02A818417950711F42E7F01C075
:102C100021602A838A81282F30E0A90155954795A4
:102C20002427352720FF42C00E94A30E2B81222398
:102C300051F02A853B85621B730B8E859F85681733
:102C4000790708F45EC00E94A30E6A877B878C8791
:102C50009D878A8180FF13C0888D998D0196998FF9
:102C6000888FE889F989309711F0CE0109950E9483
:102C7000A30E6C837D838E839F831A8E13C0EA8993
:102C8000FB89309711F0CE010995EC89FD893097C9
:102C900011F0CE0109958FEF9FEFDC018C839D83AE
:102CA000AE83BF838A8184608A832BC08B7F8A83B3
:102CB0008C819D81AE81BF818F3F9F4FAF4FBF4FB2
:102CC00001F18A8D81111DC00E94A30E0C811D810E
:102CD0002E813F81AB01BC01401B510B620B730B7A
:102CE00088859985A0E0B0E084179507A607B70707
:102CF00040F4EE89FF89309721F0CE01099581E0FB
:102D00008A8FDF91CF911F910F910895FC01718BF4
:102D1000608B08950F93FC010150040F84A996A9BC
:102D2000941718F0081728F402C0081750F0041779
:102D300040F42150260F83A995A9961720F428174F
:102D400020F480E007C0281720F481E0261710F057
:102D5000F8CF81E00F910895DB011496ED91FC917D
:102D6000159720E030E061E00994DB011496ED91C5
:102D7000FC91159720E030E063E00994DB011496A4
:102D8000ED91FC91159720E030E040E064E009947B
:102D9000DB011496ED91FC91159720E030E041E0C5
:102DA00064E00994DB011496ED91FC91159720E005
:102DB00030E062E00994DB011496ED91FC911597E7
:102DC00020E030E065E00994DB011496ED91FC9180
:102DD000159766E00994CF92DF92EF92FF920F93DE
:102DE0001F93CF93DF938C016B017A0180E0F70191
:102DF000C49181110AC0CF3FE9F14C2FB601C8013F
:102E00000E94DB1681112FC03AC0CF3F11F44FEF63
:102E1000F5CFCE3FB1F1C03F30F5C03E38F04C2F7A
:102E20004F70B601C8010E94D2161DC0C03D38F0D7
:102E30004C2F4F70B601C8010E94B51614C0C03C9B
:102E4000A0F0B601C8010E94BE16C295C07FCE5F39
:102E5000D0E0CE010E946218B601C8010E94C816D7
:102E6000CE010E94621880E006C0C7FDFCCF8C2F07
:102E700090E0F7CF81E0FFEFEF1AFF0AB8CF80E0D4
:102E800001C081E0DF91CF911F910F91FF90EF90F2
:102E9000DF90CF900895CF93DF93FC0123A52223E9
:102EA00081F0EC0188E70E940318811102C080E0E4
:102EB00009C08EA1811180E40E943A188823B9F3D9
:102EC0001BA681E0DF91CF9108950F931F93CF93BD
:102ED000C42F89016330C1F050F4613081F0623059
:102EE00009F048C0FC0146A321E023A743C0663097
:102EF00011F1673079F1653009F03CC00EC0FC017A
:102F000086A50E94CD1736C0FC0116A221E023A79A
:102F1000411130C00E945B182DC00E944B178111D7
:102F200004C00E945B1880E026C08C2F0E943A18D3
:102F3000811120C0F6CF0E944B17882391F3CC2338
:102F4000C9F0F80181918F010E943A18882349F352
:102F5000C150F5CF0E944B17882319F3CC2351F0B1
:102F6000F80184910E943A18882329F00F5F1F4FBF
:102F7000C150F4CF81E0CF911F910F9108959091AE
:102F80008304911104C080938304609381040895A5
:102F90001092830410928104089580938204109209
:102FA000B90084FF02C08CE001C088E48093B800BF
:102FB0000C94C8171F93CF93DF9300D0CDB7DEB723
:102FC00020ED37E03A8329839091BC00982399F44F
:102FD00029813A81232B51F480918204182F127099
:102FE00081FD09C081E00E94BF1706C029813A8196
:102FF00021503109E7CF11E0812F0F900F90DF9121
:10300000CF911F910895CF93C82F84EA8093BC007D
:1030100061E080E80E94DA17882359F08091B900B6
:10302000887F883041F0803131F061E082E00E9499
:10303000BF17C0E01CC0C093BB0084E88093BC00F5
:1030400062E080E80E94DA17882399F38091820475
:10305000C82FC27081FD0AC08091B900887F883175
:1030600029F062E082E00E94BF1701C0C1E08C2F0E
:10307000CF910895CF938093BB0084E88093BC00E8
:1030800063E080E80E94DA17C82F882389F08091D6
:103090008204C82FC27081FD0AC08091B900887F68
:1030A000883229F063E082E00E94BF1701C0C1E0CE
:1030B0008C2FCF91089584E98093BC0064E080E177
:1030C0000C94DA172EE93FE0009729F0F9013197C7
:1030D000F1F70197F9CF0895FC01128280818150A8
:1030E000838314820895FC0130819281930F92832F
:1030F0002181921760F494819F5F94838381830F71
:10310000821710F08FEF820F838381E0089580E0B3
:1031100008950E94C41808F481E008950E9495184B
:103120006894B1110C94330A08950E94180A88F02B
:103130009F5798F0B92F9927B751B0F0E1F0660F7B
:10314000771F881F991F1AF0BA95C9F714C0B130BC
:1031500091F00E94320AB1E008950C94320A672F70
:10316000782F8827B85F39F0B93FCCF386957795EB
:103170006795B395D9F73EF49095809570956195D4
:103180007F4F8F4F9F4F0895990F0008550FAA0B3F
:10319000E0E8FEEF16161706E807F907C0F012166A
:1031A0001306E407F50798F0621B730B840B950B6D
:1031B00039F40A2661F0232B242B252B21F40895C2
:1031C0000A2609F4A140A6958FEF811D811D08955F
:1031D0000E94C41808F48FEF08950E9400190C94FF
:1031E000FF090E94F10938F00E94F80920F09523A8
:1031F00011F00C94E8090C94EE0911240C94330A94
:103200000E94100A70F3959FC1F3950F50E0551F6F
:10321000629FF001729FBB27F00DB11D639FAA272B
:10322000F00DB11DAA1F649F6627B00DA11D661F7A
:10323000829F2227B00DA11D621F739FB00DA11D9B
:10324000621F839FA00D611D221F749F3327A00D55
:10325000611D231F849F600D211D822F762F6A2FF1
:1032600011249F5750409AF0F1F088234AF0EE0F56
:10327000FF1FBB1F661F771F881F91505040A9F783
:103280009E3F510580F00C94E8090C94330A5F3F8F
:10329000E4F3983ED4F3869577956795B795F795BF
:1032A000E7959F5FC1F7FE2B880F911D9695879537
:1032B00097F908950E94C418880B990B0895A1E20C
:1032C0001A2EAA1BBB1BFD010DC0AA1FBB1FEE1FA0
:1032D000FF1FA217B307E407F50720F0A21BB30BEB
:1032E000E40BF50B661F771F881F991F1A9469F767
:1032F00060957095809590959B01AC01BD01CF01C3
:103300000895EE0FFF1F0590F491E02D0994EF92C0
:103310000F931F93CF93DF93E80147FD02C034E082
:1033200001C034E1042E000C550B57FF03C051952A
:1033300041955109E32E022F242FAE010E94C01B9C
:10334000CE01DF91CF911F910F91EF9008950F93D0
:103350001F93CF93DF938230910510F482E090E0C9
:10336000E0918604F091870420E030E0A0E0B0E036
:10337000309719F140815181028113814817590713
:10338000C8F08417950769F4109731F012960C93E2
:10339000129713961C9327C00093860410938704FA
:1033A00022C02115310519F04217530718F49A016C
:1033B000BD01EF01DF01F801DBCF21153105F9F087
:1033C000281B390B2430310580F48A819B816115DB
:1033D000710521F0FB019383828304C090938704DD
:1033E00080938604FE01329644C0FE01E20FF31F73
:1033F0008193919322503109398328833AC02091D7
:10340000840430918504232B41F4209102013091F2
:1034100003013093850420938404209100013091AE
:1034200001012115310541F42DB73EB7409104014A
:1034300050910501241B350BE0918404F091850423
:10344000E217F307A0F42E1B3F0B2817390778F07B
:10345000AC014E5F5F4F2417350748F04E0F5F1FDA
:1034600050938504409384048193919302C0E0E0DB
:10347000F0E0CF01DF91CF911F910F910895CF938D
:10348000DF93009709F481C0FC0132971382128206
:10349000A0918604B0918704109781F42081318136
:1034A000820F931F209184043091850428173907D7
:1034B00051F5F0938504E093840467C0ED0120E0AA
:1034C00030E0CE17DF0740F44A815B819E01411551
:1034D0005105F1F0EA01F5CFD383C28340815181D8
:1034E000840F951FC817D90759F488819981840FD3
:1034F000951F0296918380838A819B819383828327
:103500002115310529F4F0938704E09386043DC02A
:10351000E901FB83EA8349915991C40FD51FEC1748
:10352000FD0761F480819181840F951F0296E90166
:1035300099838883828193819B838A83E0E0F0E092
:1035400012968D919C911397009719F0FD01DC0163
:10355000F7CF8D919C9111979D012E5F3F4F820F68
:10356000931F20918404309185042817390769F44A
:10357000309729F4109287041092860402C01382B7
:103580001282B0938504A0938404DF91CF910895B3
:10359000A0E0B0E0EEECFAE10C94061EEC0100971E
:1035A00021F4CB010E94A719B4C0FC01E60FF71F5C
:1035B0009C0122503109E217F30708F4A8C0D90191
:1035C0000D911C91119706171707B0F005301105E2
:1035D00008F49BC0C80104978617970708F495C0A4
:1035E00002501109061B170B019311936D937C93E5
:1035F000CF010E943F1A89C05B01A01AB10A4C0199
:10360000800E911EA0918604B0918704612C712CCC
:10361000E12CF12C109709F446C08D919C911197E3
:10362000A815B905B1F56C0142E0C40ED11CCA144D
:10363000DB0478F14C018A189B08640142E0C40E57
:10364000D11C1296BC9012971396AC91B5E0CB1694
:10365000D10440F0B282A38391828082D9016D931C
:103660007C9309C00E5F1F4F800F911FF90191835A
:103670008083EB2DFA2FE114F10431F0D70113967A
:10368000FC93EE93129741C0F0938704E093860475
:103690003CC06816790608F43C017D0112960D9035
:1036A000BC91A02DB7CF8091840490918504881699
:1036B0009906E1F466167706C8F4809100019091AE
:1036C0000101009741F48DB79EB7409104015091DC
:1036D0000501841B950BE817F907C8F4F0938504DE
:1036E000E0938404F901718360830FC0CB010E94D1
:1036F000A7197C01009759F0A801BE010E948E1BFA
:10370000CE010E943F1AC70104C0CE0102C080E072
:1037100090E0CDB7DEB7EEE00C94221EFB01DC0199
:1037200002C001900D9241505040D8F70895FB011E
:10373000DC0101900D920020E1F70895BB27FA010A
:10374000A62F6217710581059105330B30FB66F0DA
:10375000AA27660F771F881F991FAA1FA21710F0AC
:10376000A21B63953850A9F7A05DAA3308F0A95DA4
:10377000A19336F7B111B1931082CA010C94F21DD6
:10378000A9E0B0E0E6ECFBE10C94081E6A01122F00
:10379000B02E2BE3201720F0FF24F394F00E02C08C
:1037A0002CE3F22E0F2D27E0AE014F5F5F4F0E94FA
:1037B0001A1DBC014981842F8970813031F0E1FCF0
:1037C00006C0E0FE06C090E205C09DE203C09BE299
:1037D00001C090E05E2D507143FF3CC0911102C0CA
:1037E00083E001C084E0811718F4212F281B01C059
:1037F00020E051110BC0F601822F30E2882319F02E
:1038000031938150FBCFC20ED11C20E0992329F0C7
:10381000D6019C93F60131966F01C6010396E2FE34
:103820000AC03EE4D6013C9341E411964C931197B3
:1038300012963C9306C03EE6F601308341E6418392
:103840003283FC01322F40E2332309F442C041931A
:103850003150FACF42FF44C0911102C083E001C051
:1038600084E0811718F4212F281B01C020E051119A
:103870000BC0F601822F30E2882319F0319381507A
:10388000FBCFC20ED11C20E0992329F0D6019C93D6
:10389000F60131966F01C6010396E2FE0BC039E4D2
:1038A000D6013C933EE411963C93119736E4129670
:1038B0003C9307C039E6F60130833EE6318336E6B5
:1038C0003283FC01322F40E2332319F0419331500F
:1038D000FBCFFC01E20FF11D10828EEF9FEFA6C01F
:1038E00021E030E0911102C020E030E0161617060A
:1038F0001CF4FB01319602C0E1E0F0E02E0F3F1F07
:10390000BB2021F0EB2DF0E0319602C0E0E0F0E0CA
:103910002E0F3F1FE12FF0E02E173F071CF4121B64
:10392000212F01C020E08E2D887159F4F601822FDD
:1039300030E2882319F031938150FBCFC20ED11CA5
:1039400020E0992329F0D6019C93F60131966F016E
:1039500051110BC0F601822F90E3882319F0919347
:103960008150FBCFC20ED11C20E00F2D060F9A8193
:10397000342F307144FF03C0913309F40150101605
:1039800024F4093018F008E001C001E0AB0177FF32
:1039900002C040E050E0FB01E41BF50BA1E0B0E009
:1039A000AC0FBD1FEA0FFB1F8EE2A82E4B01801A41
:1039B00091080B2D10E01195019511094F3FBFEFB4
:1039C0005B0721F4D601AC9211966D01641775075F
:1039D0002CF08416950614F4818101C080E34150D7
:1039E00051093196D60111967D014017510724F0F7
:1039F000D6018C936701E2CF6417750739F49633CB
:103A000020F4953319F4311101C081E3F60180836C
:103A1000F701822F90E2882319F091938150FBCF18
:103A2000F701E20FF11D108280E090E02996ECE0B2
:103A30000C94241E283008F027E03327DA01990F70
:103A4000311D87FD916000966105710539F4326082
:103A50002E5F3D9330E32A95E1F708959F3F30F0C4
:103A600080387105610509F03C5F3C5F3D93913002
:103A700008F08068911DDF93CF931F930F93FF92FF
:103A8000EF92192F987F9695E92F96959695E90FC5
:103A9000FF27E053FF4F99273327EE24FF24A70188
:103AA000E70105900894079428F4360FE71EF81EE6
:103AB000491F511D660F771F881F991F0694A1F794
:103AC0000590079428F4E70EF81E491F561FC11DE4
:103AD000770F881F991F661F0694A1F7059007941A
:103AE00028F4F80E491F561FC71FD11D880F991FB4
:103AF000661F771F0694A1F70590079420F4490FDD
:103B0000561FC71FD81F990F661F771F881F06945F
:103B1000A9F784911095177041F0D695C7955795E0
:103B20004795F794E7941A95C1F7E6E7F0E06894B3
:103B30001590159135916591959105907FE273955A
:103B4000E118F10A430B560BC90BD009C0F7E10C81
:103B5000F11E431F561FC91FD01D7EF4703311F490
:103B60008A95E6CFE894015030F0080F0AF4002758
:103B7000021708F4202F2395022F7A3328F079E3D7
:103B80007D932A95E9F710C07D932A9589F60694CE
:103B900097956795379517951794E118F10A430B98
:103BA000560BC90BD00998F023957E9173957A3303
:103BB00008F070E37C932013B8F77E9170617D93D9
:103BC00030F0839571E37D9370E32A95E1F711243A
:103BD000EF90FF900F911F91CF91DF91992787FD73
:103BE00090950895DC01FC01672F71917723E1F72F
:103BF000329704C07C916D9370836291AE17BF07BA
:103C0000C8F308952F923F924F925F926F927F92E6
:103C10008F929F92AF92BF92CF92DF92EF92FF92DC
:103C20000F931F93CF93DF93CDB7DEB7CA1BDB0B88
:103C30000FB6F894DEBF0FBECDBF09942A8839882D
:103C400048885F846E847D848C849B84AA84B98434
:103C5000C884DF80EE80FD800C811B81AA81B98140
:103C6000CE0FD11D0FB6F894DEBF0FBECDBFED0154
:103C7000089513E0C0E1D3E004C0FE010E94811961
:0C3C80002196C131D107C9F7F894FFCF9D
:103C8C00000088042000EA0DEA0D013F11110165C6
:103C9C001708400000008001041B5B3F32356C1B91
:103CAC005B481B5B4A1B5B48001B005B003B002016
:103CBC003D20002020202020200063757272656E4C
:103CCC00744D696C6C69733A200063757272656E21
:103CDC00744D6963726F733A200064656C74614D46
:103CEC00696C6C69733A200064656C74614D69632E
:103CFC00726F733A20007468726F74746C655265DD
:103D0C006164696E673A200070756C7365447572F6
:103D1C006174696F6E52656164696E673A200070F8
:103D2C00756C7365436F756E7465723A20006C61C7
:103D3C00737450756C736554696D653A200000009E
:103D4C0000003F03030C000000003F03030C0000C5
:103D5C000000960A030C390A530A450ADD0A0D0ABB
:103D6C00006E616E00696E66006F7666002E000054
:00000001FF
