:100000000C940A030C94240D0C944B0D0C943203A5
:100010000C9432030C9432030C9432030C9432038C
:100020000C9432030C94F1030C9432030C943203BD
:100030000C9432030C9432030C9432030C9432036C
:100040000C94720D0C9432030C942C0C0C945E0CDA
:100050000C9432030C9432030C9432030C9432034C
:100060000C9432030C94320300407A10F35A00A02F
:10007000724E18090010A5D4E80000E87648170071
:1000800000E40B54020000CA9A3B000000E1F505B1
:10009000000080969800000040420F000000A086FB
:1000A00001000000102700000000E803000000002D
:1000B0006400000000000A000000000001000000D1
:1000C00000002C76D888DC674F0823DFC1DFAE59EB
:1000D000E1B1B796E5E3E453C63AE651997696E87E
:1000E000E6C28426EB898C9B62ED407C6FFCEFBC02
:1000F0009C9F40F2BAA56FA5F490055A2AF75C932D
:100100006B6CF9676DC11BFCE0E40D47FEF520E662
:10011000B500D0ED902E0300943577050080841E45
:10012000080000204E0A000000C80C333333330FA0
:10013000986E12831141EF8D2114893BE65516CF3D
:10014000FEE6DB18D1844B381BF77C1D901DA4BB49
:10015000E424203284725E228100C9F124ECA1E5FE
:100160003D27000000080002010000030407000012
:10017000000000000000010204081020408001027D
:1001800004081020010204081020040404040404DC
:100190000404020202020202030303030303000039
:1001A0000000230026002900000000002500280090
:1001B0002B0000000000240027002A00FFE0FFD1F0
:1001C000AFFF32FFD0FFFEFFE0FFD1AEFFD0FFFE5A
:1001D000FFE0FFD11000FFFEFFD0FFE0FFC1FFD125
:1001E000AED580A83FD300408D142000A1C8DA12FC
:1001F00081CFD9F1DB402EA4A6AFFFD0FFFE000ACD
:100200000AFFFE05016C02C8207FFE07FE06FE0005
:1002100000000200000106060301008080808000CB
:1002200080030303040004A0A0A005050506000048
:1002300050F850F8500307070400FF40608040204A
:10024000C040050505060000C8D0205898050606E0
:1002500006000040A040A090680103030200048053
:1002600080800207070300FF40808080808040027A
:1002700007070300FF804040404040800303030421
:100280000003A040A003030305010140E040020376
:10029000030300FEC04080030101040002E00101ED
:1002A00001020000800306060400FF202040408079
:1002B0008003050504000040A0A0A040020505033E
:1002C000000040C04040400405050500006090204B
:1002D00040F0040505050000E0106010E00405058D
:1002E0000500009090907010040505050000F08056
:1002F000E010E00405050500006080E09060040562
:1003000005050000F0102040800405050500006090
:100310009060906004050505000060907010600119
:1003200003030301008000800205050300FE400076
:100330004040800405050500001060806010030344
:1003400003040001E000E0040505050000806010E2
:10035000608004060605000060902040004005060D
:10036000060600007088A8B080700405050500002E
:10037000609090F090040505050000E090E090E0AA
:1003800004050505000060908090600405050500E7
:1003900000E0909090E0040505050000F080E0800A
:1003A000F0040505050000F080E0808004050505E7
:1003B00000006080B090600405050500009090F09A
:1003C0009090030505040000E0404040E00405056E
:1003D0000500007010109060040505050000909065
:1003E00090E09003050504000080808080E0050512
:1003F00005060000D8A8A8A88804050505000090F7
:1004000090D0B090040505050000609090906004C5
:100410000505050000E09090E0800405050500005A
:1004200060909050E0040505050000E09090E09099
:1004300003050504000060804020C003050504009A
:1004400000E0404040400405050500009090909079
:10045000600505050600008850505020050505067A
:100460000000888888A85004050505000090909039
:1004700060900406060500FF9090907010600405DF
:1004800005050000F0204080F00207070300FFC0D0
:100490008080808080C00306060400FF808040408A
:1004A00020200207070300FFC04040404040C00337
:1004B000020204000440A00401010500FFF0020252
:1004C0000203000580400404040500006090907061
:1004D00004050505000080E090906003040404001A
:1004E0000060808060040505050000107090906039
:1004F0000404040500006090A070040505050000D8
:10050000609080C0800406060500FE609090701028
:100510006004050505000080E0909090010505024B
:100520000000800080808003070703FFFE2000207A
:10053000202020C003050504000080A0C0A0A00169
:10054000050502000080808080800504040600000C
:10055000D0A8A888040404050000E090909004044A
:1005600004050000609090600406060500FE60909F
:1005700090E080800406060500FE609090701010E8
:10058000040404050000E0908080040404050000D9
:10059000704020E003050504000040E040404004B6
:1005A000040405000090909070040404050000907D
:1005B00090906005040406000088A8A85004040474
:1005C000050000909060900406060500FE90909053
:1005D000701060040404050000F02040F0030707D9
:1005E0000400FF204040804040200107070200FF38
:1005F000808080808080800307070400FF80404067
:100600002040408005030306000140A810FFEA06D1
:100610008E0C610711241FBECFEFD8E0DEBFCDBF27
:1006200011E0A0E0B1E0EAE7F9E302C005900D9225
:10063000A239B107D9F724E0A2E9B1E001C01D92C7
:10064000A733B207E1F713E0C9E0D3E004C0219774
:10065000FE010E94F817C730D107C9F70E94BC0CF1
:100660000C94B01C0C94000082EA91E00C943E15AE
:10067000CF93DF93EC01262F4CAD6BAD04960E9417
:1006800055129BAD890F8BAF81E090E0DF91CF9148
:100690000895CF92DF92EF92FF920F931F936B0119
:1006A0007C01CA01B90120E030E04FE753E40E9429
:1006B000700A0E94AE096093B40021EA34EF45E06D
:1006C0005BE3C701B6010E9435090E94AE090091A3
:1006D00038021091390220913A0230913B02DC013C
:1006E000CB01800F911FA21FB31F809338029093FC
:1006F0003902A0933A02B0933B02E0E7F0E0808138
:10070000816080831F910F91FF90EF90DF90CF90D9
:1007100008952091F3013091F4014091F501509139
:10072000F6016091EF017091F0018091F1019091DB
:10073000F2010E9449038091EF019091F001A09194
:10074000F101B091F2018093FB019093FC01A09321
:10075000FD01B093FE018091F3019091F401A0910D
:10076000F501B091F6018093F7019093F801A09301
:10077000F901B093FA010E94BC0D6093FF017093E0
:1007800000028093010290930202809103029091F3
:100790000402A0910502B09106020196A11DB11DAF
:1007A0008093030290930402A0930502B093060283
:1007B0000895E0EBF0E080818062808361E083E077
:1007C0000E946E0E81E080933702089560E083E01E
:1007D0000E94AA0E60E083E00E946E0E1092370223
:1007E00008951F920F920FB60F9211242F933F93EB
:1007F0004F935F936F937F938F939F93AF93BF9329
:10080000EF93FF9380913702811103C00E94D903B7
:100810001FC08091380290913902A0913A02B091A4
:100820003B020097A105B10541F40E94E6038091C7
:1008300070008E7F809370000BC00197A109B109F1
:100840008093380290933902A0933A02B0933B020E
:10085000FF91EF91BF91AF919F918F917F916F9198
:100860005F914F913F912F910F900FBE0F901F906E
:10087000189526E040E052EC61E070E08AE093E0F9
:100880000E94C70B84ED91E00E949D088DEB91E0E2
:100890000E949D0861E083E00E946E0E69E873E0AB
:1008A00082EA91E00E94D3158091A201823021F06A
:1008B000833021F08FEF03C080E001C081E041E090
:1008C00050E064E373E00E94040D809170008E7F1D
:1008D000809370000E94E60381E08093090380ED1D
:1008E00092E00C94B4130F931F93CF9361E080EDCB
:1008F00092E00E94FE1380910903811107C081E0FC
:100900008093090380ED92E00E94B41380ED92E0A1
:100910000E94D9136EEF71E080ED92E00E94BC124C
:1009200007E012E0C1E08091EB02C89F802D112406
:100930001092070380930803B8018CEC92E00E94A8
:10094000F50CCF5F0A5F1F4FC93069F780ED92E069
:100950000E94DE138111DECFCF911F910F91089578
:100960000F931F93CF93DF93CDB7DEB72C970FB6BE
:10097000F894DEBF0FBECDBF8C01CB01BA0120E0E1
:1009800030E048EC52E40E94700AAB01BC0121E067
:10099000CE0107960E94BC0FBE01695F7F4FCE015A
:1009A00001960E949C0F69E171E0CE0101960E94C0
:1009B0005E10BC01C8010E949C0FCE0101960E94EE
:1009C000020FCE0107960E94020FC8012C960FB6A7
:1009D000F894DEBF0FBECDBFDF91CF911F910F9175
:1009E00008950F931F93CF93DF93CDB7DEB72C9766
:1009F0000FB6F894DEBF0FBECDBF8C01CB01BA019C
:100A000020E030E04AE754E40E94700AAB01BC01E8
:100A100021E0CE0107960E94BC0FBE01695F7F4FA7
:100A2000CE0101960E949C0F6BE171E0CE01019610
:100A30000E945E10BC01C8010E949C0FCE0101966D
:100A40000E94020FCE0107960E94020FC8012C9649
:100A50000FB6F894DEBF0FBECDBFDF91CF911F91CF
:100A60000F910895CF92DF92EF92FF92CF93DF9391
:100A7000CDB7DEB762970FB6F894DEBF0FBECDBF1D
:100A80000E94BC0D60939E0170939F018093A00112
:100A90009093A1010E94C80D60939A0170939B01ED
:100AA00080939C0190939D010E94BC0D6093EB018B
:100AB0007093EC018093ED019093EE0184ED91E051
:100AC0000E9499088DEB91E00E94990884ED91E0D5
:100AD0000E94BE0720E030E0A9010E946B0A87FD5A
:100AE0000BC084ED91E00E94BE0720E030E040E0C2
:100AF0005FE30E94C9080AC084ED91E00E94BE072E
:100B000020E030E040E05FE30E94C8080E94A709AF
:100B10000E94DF0920E030EC4FE754E40E943509E1
:100B20006093F3017093F4018093F5019093F601C3
:100B30008DEB91E00E94BE0720E030E0A9010E9409
:100B40006B0A87FD0BC08DEB91E00E94BE0720E091
:100B500030E040E05FE30E94C9080AC08DEB91E0FD
:100B60000E94BE0720E030E040E05FE30E94C8083A
:100B70000E94A7090E94DF0920E030E04AE754E420
:100B80000E9435096093EF017093F0018093F101A9
:100B90009093F20180913702882309F440C060915C
:100BA00038027091390280913A0290913B020E9482
:100BB000DD0921EA34EF45E05BE30E94700AAB01F6
:100BC000BC01CE0107960E94F1046EE171E0CE01F6
:100BD0000D960E94700FBE01635F7F4FCE0101969C
:100BE0000E949C0FBE01695F7F4FCE0101960E945B
:100BF0004B106DE271E00E945E10BC0187E092E054
:100C00000E94850FCE0101960E94020FCE010D9623
:100C10000E94020FCE0107960E94020F06C064E3F5
:100C200071E087E092E00E94A50FC0900302D0908F
:100C30000402E0900502F090060263E471E0CE0148
:100C400007960E94700FBE01695F7F4FCE0101962B
:100C50000E949C0FB701A601CE0101960E94771059
:100C6000BC018DE092E00E94850FCE0101960E94AA
:100C7000020FCE0107960E94020F4091F70150919A
:100C8000F8016091F9017091FA01CE0101960E947C
:100C9000B0044091FB015091FC016091FD01709105
:100CA000FE01CE010D960E94F10462E571E0CE01D5
:100CB00007960E94700FBE01635F7F4FCE010796BB
:100CC0000E944B106FE571E00E945E10BE016F5FE5
:100CD0007F4F0E944B10BC0183E192E00E94850F80
:100CE000CE0107960E94020FCE010D960E94020FC0
:100CF000CE0101960E94020F4091F3015091F40140
:100D00006091F5017091F601CE0101960E94B00448
:100D10004091EF015091F0016091F1017091F20169
:100D2000CE010D960E94F10464E671E0CE010796B3
:100D30000E94700FBE01635F7F4FCE0107960E9435
:100D40004B106FE571E00E945E10BE016F5F7F4F38
:100D50000E944B10BC0189E192E00E94850FCE01F8
:100D600007960E94020FCE010D960E94020FCE013F
:100D700001960E94020F0E94730480919E0190913F
:100D80009F01A091A001B091A10180939601909341
:100D90009701A0939801B093990180919A01909145
:100DA0009B01A0919C01B0919D0180939201909331
:100DB0009301A0939401B093950162960FB6F894B5
:100DC000DEBF0FBECDBFDF91CF91FF90EF90DF90E0
:100DD000CF9008950F931F93CF93DF931092CF027C
:100DE0001092CE0285E791E09093CD028093CC02E1
:100DF00042E16BE071E08CEC92E00E9485108DE79F
:100E000091E09093CD028093CC0210923D0210921B
:100E10003C028091EB019091EC01A091ED01B09129
:100E2000EE0180933E0290933F02A0934002B09364
:100E300041028AEF90E0A0E0B0E0809346029093F8
:100E40004702A0934802B093490288E893E1A0E0EA
:100E5000B0E080934A0290934B02A0934C02B0936F
:100E60004D0281E080934E02C7E0D2E007E312E03A
:100E70006CE271E0CE010E94700F26960C171D07E0
:100E8000B9F726E030E040E050E06FE084ED91E01B
:100E90000E947C0726E030E040E050E06EE08DEB01
:100EA00091E00E947C0704E110E021E042E062E072
:100EB00082EA91E00E940615DF91CF911F910F9178
:100EC0000895CF93DF938091BE019091BF010E945E
:100ED000B6188091D5019091D6010E94B618C7E34B
:100EE000D2E02697CE010E94020F82E0C730D807D9
:100EF000C1F7DF91CF910895CF92DF92EF92FF92E9
:100F00001F93CF93DF93EC01162F69017A012F878E
:100F1000388B498B5A8B1B861C861D861E86C90101
:100F2000880F991F880F991F0E941E1889839A8322
:100F30001F82188619861A861B821C821D821E82B9
:100F4000FC0180E090E0DC01C816D906EA06FB0649
:100F500041F011921192119211920196A11DB11DB1
:100F6000F3CF1883CB8ADC8AED8AFE8ADF91CF919A
:100F70001F91FF90EF90DF90CF900895CF93DF9374
:100F8000FC016385748585859685611571058105EC
:100F9000910561F0EF010E94DD099B01AC016B81BD
:100FA0007C818D819E810E94350903C060E070E0E4
:100FB000CB01DF91CF9108952F923F924F925F9294
:100FC0006F927F928F929F92AF92BF92CF92DF9259
:100FD000EF92FF920F931F93CF93DF9300D000D037
:100FE000CDB7DEB79C838B837A83698300E010E002
:100FF00089819A81081719070CF084C0AB81BC81E4
:101000008C910E94280EBC01990F880B990B0E94AD
:10101000DF092B013C01EB81FC8183859485A5854B
:10102000B68587849088A188B2882180328088150F
:101030009905AA05BB0540F40196A11DB11D838742
:101040009487A587B6871EC0AB81BC811796ED91AA
:10105000FC911897EE0FFF1FEE0FFF1FE20DF31D1F
:10106000208131814281538113966D917D918D91C3
:101070009C9116970E94C808EB81FC81638374835E
:1010800085839683AB81BC811796CD90DD90ED90E2
:10109000FC901A97C601880F991F880F991FF101BC
:1010A000E80FF91F4082518262827382A30192018C
:1010B00013966D917D918D919C9116970E94C90810
:1010C000EB81FC816383748385839683FFEFCF1A62
:1010D000DF0AEF0AFF0AC814D904EA04FB0448F443
:1010E000AB81BC811796CD92DD92ED92FC921A975E
:1010F00006C0EB81FC8117821086118612860F5F75
:101100001F4F76CF0F900F900F900F90DF91CF91E0
:101110001F910F91FF90EF90DF90CF90BF90AF9015
:101120009F908F907F906F905F904F903F902F9007
:10113000089561E070E00C94DC07CF92DF92EF92AB
:10114000FF92CF93DF93EC0160E088810E946E0EE6
:1011500080E090E0DC016C017D012FEFC21AD20A21
:10116000E20AF20A4B895C896D897E8984179507AA
:10117000A607B70730F4CE010E949908D701C6012F
:10118000EACFDF91CF91FF90EF90DF90CF9008955D
:101190005058BB27AA270E94E0080C94310A0E94ED
:1011A000230A38F00E942A0A20F039F49F3F19F4EC
:1011B00026F40C94200A0EF4E095E7FB0C941A0A2E
:1011C000E92F0E94420A58F3BA176207730784078F
:1011D000950720F079F4A6F50C94640A0EF4E095D6
:1011E0000B2EBA2FA02D0B01B90190010C01CA01E1
:1011F000A0011124FF27591B99F0593F50F4503E8C
:1012000068F11A16F040A22F232F342F4427585F7D
:10121000F3CF469537952795A795F0405395C9F795
:101220007EF41F16BA0B620B730B840BBAF091504D
:10123000A1F0FF0FBB1F661F771F881FC2F70EC0EC
:10124000BA0F621F731F841F48F4879577956795BF
:10125000B795F7959E3F08F0B0CF9395880F08F0AB
:101260009927EE0F9795879508950E9449090C9448
:10127000310A0E942A0A58F00E94230A40F029F4F9
:101280005F3F29F00C941A0A51110C94650A0C94D2
:10129000200A0E94420A68F39923B1F3552391F37F
:1012A000951B550BBB27AA2762177307840738F0D5
:1012B0009F5F5F4F220F331F441FAA1FA9F335D032
:1012C0000E2E3AF0E0E832D091505040E695001CE6
:1012D000CAF72BD0FE2F29D0660F771F881FBB1FA0
:1012E000261737074807AB07B0E809F0BB0B802D7E
:1012F000BF01FF2793585F4F3AF09E3F510578F0AA
:101300000C941A0A0C94650A5F3FE4F3983ED4F3F8
:10131000869577956795B795F7959F5FC9F7880F7D
:10132000911D9695879597F90895E1E0660F771FCF
:10133000881FBB1F621773078407BA0720F0621B60
:10134000730B840BBA0BEE1F88F7E09508950E948B
:10135000AE096894B1110C94650A08950E944A0A76
:1013600088F09F5798F0B92F9927B751B0F0E1F066
:10137000660F771F881F991F1AF0BA95C9F714C016
:10138000B13091F00E94640AB1E008950C94640AAF
:10139000672F782F8827B85F39F0B93FCCF386954F
:1013A00077956795B395D9F73EF4909580957095AC
:1013B00061957F4F8F4F9F4F0895E89409C097FB29
:1013C0003EF490958095709561957F4F8F4F9F4F1C
:1013D0009923A9F0F92F96E9BB279395F695879560
:1013E00077956795B795F111F8CFFAF4BB0F11F423
:1013F00060FF1BC06F5F7F4F8F4F9F4F16C08823CA
:1014000011F096E911C0772321F09EE8872F762FFF
:1014100005C0662371F096E8862F70E060E02AF040
:101420009A95660F771F881FDAF7880F969587952C
:1014300097F9089597F99F6780E870E060E0089554
:101440009FEF80EC089500240A94161617061806DC
:101450000906089500240A941216130614060506B8
:101460000895092E0394000C11F4882352F0BB0F49
:1014700040F4BF2B11F460FF04C06F5F7F4F8F4FAC
:101480009F4F089557FD9058440F551F59F05F3FE7
:1014900071F04795880F97FB991F61F09F3F79F096
:1014A00087950895121613061406551FF2CF469518
:1014B000F1DF08C0161617061806991FF1CF86959A
:1014C0007105610508940895E894BB27662777277E
:1014D000CB0197F908950E94DD0A08F48FEF089573
:1014E0000E94830A0C94310A0E94230A38F00E9459
:1014F0002A0A20F0952311F00C941A0A0C94200A61
:1015000011240C94650A0E94420A70F3959FC1F35E
:10151000950F50E0551F629FF001729FBB27F00DA1
:10152000B11D639FAA27F00DB11DAA1F649F6627F6
:10153000B00DA11D661F829F2227B00DA11D621F45
:10154000739FB00DA11D621F839FA00D611D221FFF
:10155000749F3327A00D611D231F849F600D211DE3
:10156000822F762F6A2F11249F5750409AF0F1F066
:1015700088234AF0EE0FFF1FBB1F661F771F881FCF
:1015800091505040A9F79E3F510580F00C941A0AE3
:101590000C94650A5F3FE4F3983ED4F38695779503
:1015A0006795B795F795E7959F5FC1F7FE2B880F75
:1015B000911D9695879597F90895990F0008550FF5
:1015C000AA0BE0E8FEEF16161706E807F907C0F0C9
:1015D00012161306E407F50798F0621B730B840BD1
:1015E000950B39F40A2661F0232B242B252B21F4AB
:1015F00008950A2609F4A140A6958FEF811D811D4B
:101600000895FC01918D228D892F90E0805C9F4F81
:10161000821B91098F7399270895FC01918D828D0A
:10162000981731F0828DE80FF11D858D90E00895B7
:101630008FEF9FEF0895FC01918D828D981761F0D7
:10164000828DDF01A80FB11D5D968C91928D9F5FF9
:101650009F73928F90E008958FEF9FEF089584E835
:101660009CE0892B49F080E090E0892B29F00E94D2
:10167000840C81110C9400000895FC01848DDF011D
:10168000A80FB11DA35ABF4F2C91848D90E00196F5
:101690008F739927848FA689B7892C93A089B189E4
:1016A0008C9180648C93938D848D981306C00288EE
:1016B000F389E02D80818F7D80830895EF92FF92E2
:1016C0000F931F93CF93DF93EC0181E0888F9B8D65
:1016D0008C8D981305C0E889F989808185FD24C027
:1016E000F62E0B8D10E00F5F1F4F0F731127E02EAA
:1016F0008C8DE8120CC00FB607FCFACFE889F98987
:10170000808185FFF5CFCE010E943D0BF1CF8B8DFF
:10171000FE01E80FF11DE35AFF4FF0820B8FEA89BB
:10172000FB898081806207C0EE89FF896083E88938
:10173000F98980818064808381E090E0DF91CF919E
:101740001F910F91FF90EF900895CF93DF93EC01DD
:10175000888D8823C9F0EA89FB89808185FD05C0D1
:10176000A889B9898C9186FD0FC00FB607FCF5CF0B
:10177000808185FFF2CFA889B9898C9185FFEDCF53
:10178000CE010E943D0BE7CFDF91CF910895CF921C
:10179000DF92EF92FF921F93CF93DF93EC016A01E8
:1017A0007B01122FE889F98982E080834115514E2F
:1017B00061057105B1F060E079E08DE390E0A7018B
:1017C00096010E94D617DA01C9010197A109B10952
:1017D000B695A795979587959C01211580E13807C7
:1017E000A8F0E889F989108260E874E88EE190E059
:1017F000A70196010E94D617DA01C9010197A10934
:10180000B109B695A795979587959C01EC85FD85BF
:101810003083EE85FF852083188EEC89FD89108347
:10182000EA89FB89808180618083EA89FB898081E4
:1018300088608083EA89FB89808180688083EA8967
:10184000FB8980818F7D8083DF91CF911F91FF90F5
:10185000EF90DF90CF9008951F920F920FB60F92E6
:1018600011242F938F939F93EF93FF93E0911A038B
:10187000F0911B038081E0912003F091210382FD10
:1018800012C09081809123038F5F8F732091240376
:10189000821751F0E0912303F0E0E65FFC4F958F53
:1018A0008093230301C08081FF91EF919F918F91DD
:1018B0002F910F900FBE0F901F9018951F920F92AF
:1018C0000FB60F9211242F933F934F935F936F9313
:1018D0007F938F939F93AF93BF93EF93FF938AE090
:1018E00093E00E943D0BFF91EF91BF91AF919F91CB
:1018F0008F917F916F915F914F913F912F910F90B9
:101900000FBE0F901F9018958AE093E00E94010B84
:1019100021E0892B09F420E0822F0895EAE0F3E02A
:101920001382128288EE93E0A0E0B0E08483958376
:10193000A683B78385E891E09183808385EC90E06E
:101940009587848784EC90E09787868780EC90E089
:10195000918B808B81EC90E0938B828B82EC90E07A
:10196000958B848B86EC90E0978B868B118E128EF4
:10197000138E148E089508950E94ED0D0E94BB0CE5
:101980000E943904CFE2DBE00E9432052097E1F3A8
:101990000E942F0BF9CFCF92DF92EF92FF920F931D
:1019A0001F93CF93DF936C017A018B01C0E0D0E0ED
:1019B000CE15DF0581F0D8016D918D01D601ED9135
:1019C000FC910190F081E02DC6010995892B11F061
:1019D0002196EECF7E01C701DF91CF911F910F912C
:1019E000FF90EF90DF90CF900895DB0114964D911A
:1019F0005C9115976D917C91DC01ED91FC910280D9
:101A0000F381E02D099408958230E8F4E82FF0E0A6
:101A1000EE0FFF1FEA5FFE4F71836083813041F05C
:101A2000809169008C7F482B40936900E89A089563
:101A300080916900837F440F551F440F551F482B29
:101A400040936900E99A08951F920F920FB60F9282
:101A500011242F933F934F935F936F937F938F93B3
:101A60009F93AF93BF93EF93FF93E0910601F091A3
:101A700007010995FF91EF91BF91AF919F918F91D0
:101A80007F916F915F914F913F912F910F900FBE7A
:101A90000F901F9018951F920F920FB60F9211245E
:101AA0002F933F934F935F936F937F938F939F9366
:101AB000AF93BF93EF93FF93E0910801F091090179
:101AC0000995FF91EF91BF91AF919F918F917F9178
:101AD0006F915F914F913F912F910F900FBE0F909B
:101AE0001F9018951F920F920FB60F9211242F93EB
:101AF0003F938F939F93AF93BF938091A80390914F
:101B0000A903A091AA03B091AB033091A70323E0EE
:101B1000230F2D3720F40196A11DB11D05C026E825
:101B2000230F0296A11DB11D2093A7038093A80344
:101B30009093A903A093AA03B093AB038091AC0345
:101B40009091AD03A091AE03B091AF030196A11D9A
:101B5000B11D8093AC039093AD03A093AE03B093FB
:101B6000AF03BF91AF919F918F913F912F910F90B4
:101B70000FBE0F901F9018952FB7F8946091A8038F
:101B80007091A9038091AA039091AB032FBF089590
:101B90003FB7F8948091AC039091AD03A091AE0350
:101BA000B091AF0326B5A89B05C02F3F19F0019651
:101BB000A11DB11D3FBFBA2FA92F982F8827820FD3
:101BC000911DA11DB11DBC01CD0142E0660F771F23
:101BD000881F991F4A95D1F70895789484B582603B
:101BE00084BD84B5816084BD85B5826085BD85B5C1
:101BF000816085BDEEE6F0E0808181608083E1E870
:101C0000F0E01082808182608083808181608083A7
:101C1000E0E8F0E0808181608083E1EBF0E08081AA
:101C200084608083E0EBF0E0808181608083EAE77C
:101C3000F0E0808184608083808182608083808105
:101C4000816080838081806880831092C1000895C4
:101C50008E3008F08E5020910A0190E4299F900167
:101C600011248770822B80937C0080917A0080649D
:101C700080937A0080917A0086FDFCCF8091780075
:101C80002091790090E0922B0895833081F028F420
:101C9000813099F08230A1F008958730A9F0883022
:101CA000B9F08430D1F4809180008F7D03C08091A1
:101CB00080008F7780938000089584B58F7702C06D
:101CC00084B58F7D84BD08958091B0008F7703C067
:101CD0008091B0008F7D8093B0000895CF93DF9303
:101CE00090E0FC01EA58FE4F2491FC01E657FE4FBC
:101CF0008491882361F190E0880F991FFC01EE54D4
:101D0000FE4FC591D491FC01E855FE4FA591B491C9
:101D1000611109C09FB7F894888120958223888338
:101D2000EC912E230BC0623061F49FB7F894888148
:101D3000322F309583238883EC912E2B2C939FBFD9
:101D400006C08FB7F894E8812E2B28838FBFDF91D0
:101D5000CF9108951F93CF93DF93282F30E0F9019F
:101D6000EE59FE4F8491F901EA58FE4FD491F901E2
:101D7000E657FE4FC491CC23C1F0162F81110E946B
:101D8000450EEC2FF0E0EE0FFF1FE855FE4FA5913A
:101D9000B4919FB7F894111104C08C91D095D823B9
:101DA00002C0EC91DE2BDC939FBFDF91CF911F919E
:101DB0000895CF93DF93282F30E0F901EE59FE4FBD
:101DC0008491F901EA58FE4FD491F901E657FE4F8C
:101DD000C491CC2391F081110E94450EEC2FF0E0CC
:101DE000EE0FFF1FE256FE4FA591B491EC91ED234B
:101DF00081E090E021F480E002C080E090E0DF919B
:101E0000CF910895FC01808191810C94B618CF93F5
:101E1000DF93EC0188819981009711F00E94B61838
:101E2000198218821D821C821B821A82DF91CF9137
:101E300008950F931F93CF93DF93EC018B016F5F96
:101E40007F4F888199810E943F19009731F09983D3
:101E500088831B830A8381E001C080E0DF91CF91FA
:101E60001F910F910895CF93DF93EC0188819981A1
:101E7000892B29F08A819B818617970760F4CE0110
:101E80000E94190F882341F08C819D81892B19F4C0
:101E9000E881F981108281E0DF91CF910895EF927E
:101EA000FF920F931F93CF93DF93EC017B018A0185
:101EB000BA010E94330F811104C0CE010E94070FA6
:101EC00007C01D830C83B701888199810E940E1A77
:101ED000CE01DF91CF911F910F91FF90EF90089568
:101EE000FC01118210821382128215821482611504
:101EF000710551F0FB0101900020E9F73197AF0126
:101F0000461B570B0C944F0F0895CF93DF93EC01B2
:101F1000FB018617970761F060817181611571057A
:101F200029F0448155810E944F0F02C00E94070F83
:101F3000CE01DF91CF910895FC01118210821382AE
:101F40001282158214820C94850FCF93DF93EC01DB
:101F50006115710559F0FB0101900020E9F73197F7
:101F6000AF01461B570B0E944F0F02C00E94070F84
:101F7000CE01DF91CF910895EF92FF920F931F93BF
:101F8000CF93DF93CDB7DEB7A1970FB6F894DEBF3E
:101F90000FBECDBF7C01CB01BA01F70111821082C7
:101FA000138212821582148242E0420F8E010F5F6B
:101FB0001F4F0E94FE17BC01C7010E94A50FA196EA
:101FC0000FB6F894DEBF0FBECDBFDF91CF911F914A
:101FD0000F91FF90EF900895EF92FF920F931F9350
:101FE000CF93DF936115710511F480E01CC041159A
:101FF0005105C1F07B01EC018C819D818A01080FA4
:10200000191FB801CE010E94330F882371F3288174
:1020100039818C819D81B701820F931F0E940E1A16
:102020001D830C8381E0DF91CF911F910F91FF9071
:10203000EF900895EF92FF920F931F93CF93DF934A
:10204000CDB7DEB72D970FB6F894DEBF0FBECDBF6C
:102050007C01CB01BA012AE08E010F5F1F4FA8015E
:102060000E94151AF80101900020E9F73197AF019D
:10207000401B510BB801C7010E94EC0F2D960FB603
:10208000F894DEBF0FBECDBFDF91CF911F910F91AE
:10209000FF90EF900895CF93DF93EC01FB01448113
:1020A0005581608171810E94EC0F811103C0CE01C6
:1020B0000E94070FCE01DF91CF910895CF93DF9358
:1020C000EC016115710561F0FB0101900020E9F759
:1020D0003197AF01461B570B0E94EC0F811103C0D3
:1020E000CE010E94070FCE01DF91CF910895CF93CB
:1020F000DF93EC010E941A10811103C0CE010E94EF
:10210000070FCE01DF91CF910895FC0113AE14AEFD
:1021100015AE04960C94C413AF92BF92CF92DF9287
:10212000FF920F931F93CF93DF938C01EB01F42E5B
:10213000690180E14817B1F1841770F0EAE04E13AD
:102140003CC042E0C8010E94F91548ED51E0BE01D3
:10215000C8010E94381631C0F1E14F1731F185E115
:1021600048132BC0AA80BB8040ED51E0C8010E94FB
:102170003816F5014481406BBE01C8010E94281643
:1021800041E0BE01C8010E941F16AE01B801C501A1
:102190000E944814882301F140E0BE01C8010E945A
:1021A00002160BC047EC51E002C04CEB51E0BE01FF
:1021B000C8010E94381681E00FC096014F2DBE0164
:1021C000C801DF91CF911F910F91FF90DF90CF90C9
:1021D000BF90AF900C94B414DF91CF911F910F91E9
:1021E000FF90DF90CF90BF90AF900895FC01E60F75
:1021F000F11D849190E0982F88273196E4918E0FFD
:10220000911D0895FC01849108950E940211882374
:1022100021F0823011F083E0089586E0089580E097
:10222000089566E00C94F61068E00C94F6100A9697
:10223000FC01849108950B96FC0184910895BF924E
:10224000CF92DF92EF92FF920F931F93CF93DF9382
:102250008C01E62EDC011496CD91DC911597CE0110
:102260000E940211F82EF801848195810E940511C7
:10227000C82EF1E0FF1203C02FE0B22E02C0BB2433
:10228000BA94D80114968D919C9115970E941711BC
:10229000F82EF801848195810E941B11D82ED80157
:1022A00014968D919C9115970E941411B0E6BE155D
:1022B00038F4009729F0C80FD91F91E6F92E10C005
:1022C000F801848195810E941111F0E4FE1538F423
:1022D000009729F0C80FD91F81E4F82E01C061963C
:1022E000DE1490F4D80150961C92509753961C928D
:1022F000539754961C92549751961C92519752960C
:102300001C9280E090E067C0DF1460F38C2D90E0B9
:10231000FE0124912F3F11F4219658C0FE104DC0AC
:10232000D80114968D919C9115970E9402119E01DF
:102330002F5F3F4FFE01882311F08230E1F484913A
:10234000D80153968C935397F901249154962C936A
:102350005497FE013396E4915096EC935097FE010A
:102360003496E4915196EC935197FE013596E491A1
:102370005296EC9320C08491982F9F709250D80170
:1023800052969C93529782958F7051968C93519749
:10239000F9012491822F8F7054968C935497229533
:1023A0002F7053962C935397FE013296E491E29549
:1023B000EF705096EC93CE010EC0FE013296E49180
:1023C000EB219C012E0F311DC20FD31FFD1409F408
:1023D00089CFF3949DCFDF91CF911F910F91FF9003
:1023E000EF90DF90CF90BF9008956F927F928F9281
:1023F0009F92AF92BF92CF92DF92EF92FF920F9394
:102400001F93CF93DF93EC01C62E742E622F0E9490
:102410001F117C01892BC9F18C819D810E940511BE
:10242000B82E1B890C898989C80E8A89781AD72CFD
:10243000D01A212F4D2D6C2DCE010E94D715882347
:1024400011F1EB0CF11C195F169516951695812E5E
:10245000912C7D14C1F06C2C57018A2D8E19811797
:1024600070F4F501049120E04D2D662DCE010E94FF
:10247000ED13FFEFAF1ABF0A88E0680EEECFE80C4D
:10248000F91CD394E6CF888901C080E0DF91CF9119
:102490001F910F91FF90EF90DF90CF90BF90AF9082
:1024A0009F908F907F906F900895FF920F931F934E
:1024B000CF93DF93EC01062F142FF22EED89FE89C6
:1024C0000995482F410F2F2D602FCE01DF91CF911D
:1024D0001F910F91FF900C94F511DC0114962D9132
:1024E0003C9115972115310509F43FC057968C9101
:1024F0005797F901811108C03596E4915896EC93ED
:102500005897F9013C9611C0813041F43F96E4910F
:102510005896EC935897F901709607C03D96E49150
:102520005896EC935897F9013E96E4915996EC939E
:10253000599758968C915897082E000C990B5996DC
:102540002C915997821B910927FD93955A962C91AE
:102550005A97203441F0829FC001112426E09695BD
:1025600087952A95E1F75B968C9308952FE031E1EA
:10257000FC01368B258B0895CF93DF93FC012481DA
:1025800035812617370749F0EC01758364830E9473
:102590006D128FE091E19E8B8D8BDF91CF9108952D
:1025A0001F93CF93DF93EC011D821C821F821E823A
:1025B000198681E0888782E28A871F861E86FE014F
:1025C000B396CE01C1962FEF2193E817F907E1F7F3
:1025D00011E018A3CE010E94B6121F8B188E198E1F
:1025E00080E48A8F1B8E8BEF94E19AAB89ABDF91ED
:1025F000CF911F910895DB01ED91FC9109940F9308
:102600001F93CF93DF93EC018B01E9A9FAA982E034
:10261000099520E030E04AE0B801CE010E94FB12AB
:10262000182FE9A9FAA983E00995E9A9FAA980E098
:102630000995812FDF91CF911F910F9108950F93ED
:102640001F93CF93DF93EC018B01E9A9FAA982E0F4
:102650000995E9A9FAA981E0099520E030E044E173
:10266000B801CE010E94FB129E012D5C3F4F47E155
:10267000B801CE010E94FB12E9A9FAA980E0DF911E
:10268000CF911F910F910994EF92FF921F93CF93D7
:10269000DF93EC017B01E9A9FAA982E00995E9A998
:1026A000FAA981E0099520E030E045E1B701CE01CB
:1026B0000E94FB12182F882341F09E012D5C3F4F92
:1026C00047E1B701CE010E94FB12E9A9FAA980E017
:1026D0000995812FDF91CF911F91FF90EF90089581
:1026E000CF93DF931F92CDB7DEB79E012F5F3F4F91
:1026F00046E40E94FB1289810F90DF91CF910895EB
:10270000CF93DF931F92CDB7DEB79E012F5F3F4F70
:1027100047E40E94FB1289810F90DF91CF910895C9
:1027200020E030E048E40C94FB12CF93DF93EC01FF
:102730006A817B810E94701388836A817B81CE01CC
:102740000E94801389836A817B81CE010E9490134D
:102750008B879E012D5C3F4F6A817B8147E1CE01D3
:10276000DF91CF910C94FB12CF93DF93EC016A8140
:102770007B810E94FF12882321F0CE010E949513D5
:1027800081E0DF91CF910895EF92FF921F93CF9355
:10279000DF93EC017B01142F0E94D012FB82EA82AE
:1027A0001EA7CE01DF91CF911F91FF90EF900C9467
:1027B000B413FC01628173810C941F13CF93DF93D8
:1027C000EC01EE85FF85309709F009956A817B81E0
:1027D000CE01DF91CF910C9444130F93FC018281C1
:1027E0009381648F458F278F068F9F01245E3F4F13
:1027F0004BE3BC01CF010F910C94FB12FC0160A3D1
:102800000895DC011696ED91FC91179715968C9121
:102810009F01280F311DC9011192E817F907E1F74F
:10282000089531E0FC012381261708F430E021E00F
:10283000FC018281481708F420E091E0461708F077
:1028400090E0892F832B2823832F8923822B0895BF
:10285000DC01FB01108212968C91129781831596F0
:102860008C9115978150828313968C918383089560
:10287000FB0141812381213029F0233031F468EFBD
:10288000640F04C0642F485F01C0642F0C941114BE
:10289000FC01CB01BA012681378145810C943116A8
:1028A000DC011696ED91FC91179712968C91481BBE
:1028B000477081E090E001C0880F4A95EAF7E60F83
:1028C000F11D3081222311F0832B02C080958323D8
:1028D00080830895FB014181DC0112962C911297AF
:1028E000421768F013962C911397241740F06081DB
:1028F00015962C91621718F424810C9450140895A5
:10290000CF92DF92FF920F931F93CF93DF936C01CF
:10291000EB01FA808B81813051F030F0823049F048
:10292000833051F41FEF09C010E001E007C011E04F
:1029300004C010E00FEF02C010E000E0F7FE04C09A
:10294000BE01C6010E946A148881800F8883898134
:10295000810F8983FF0C91F7DF91CF911F910F9128
:10296000FF90DF90CF9008950F931F93CF93DF9345
:102970008901FB01C281D3814233F9F068F445310A
:1029800009F1473141F1443181F5CE010E94011432
:10299000CE010E94B91729C0463411F1473411F114
:1029A0004B3319F5B901CE010E9438148823E9F0A0
:1029B000B801CE010E94801418C0B901CE010E9456
:1029C0006A1413C0CE010E94C017882379F0CE018B
:1029D0000E9401140AC0B901CE010E94281405C04A
:1029E0008D8101C08981F801808381E0DF91CF91E1
:1029F0001F910F910895089521E0FC012183623019
:102A000021F461E080810C94AA0E0895EF92FF9268
:102A10000F931F93CF93DF93EC01862FF42EE22EBA
:102A2000688360E00E946E0EEB821F870E870E9413
:102A3000BC0D6A877B878C879D87F11002C0198245
:102A400004C06F2DCE010E94FC141A82898181116D
:102A500002C081E08A83198A188A1B8A1A8A1D8A11
:102A60001C8A1F8A1E8A198E188E81E08A8FDF9138
:102A7000CF911F910F91FF90EF9008950F931F93A7
:102A8000CF93DF93EC018A8180FF02C0826001C096
:102A90008D7F8A8388810E94D90E498150E02A81E6
:102AA0008417950711F42E7F01C021602A838A8143
:102AB000282F30E0A901559547952427352720FF79
:102AC00042C00E94BC0D2B81222351F02A853B85F8
:102AD000621B730B8E859F856817790708F45EC0AB
:102AE0000E94BC0D6A877B878C879D878A8180FFC7
:102AF00013C0888D998D0196998F888FE889F989FF
:102B0000309711F0CE0109950E94BC0D6C837D8336
:102B10008E839F831A8E13C0EA89FB89309711F048
:102B2000CE010995EC89FD89309711F0CE01099508
:102B30008FEF9FEFDC018C839D83AE83BF838A81FF
:102B400084608A832BC08B7F8A838C819D81AE8138
:102B5000BF818F3F9F4FAF4FBF4F01F18A8D8111D2
:102B60001DC00E94BC0D0C811D812E813F81AB01D7
:102B7000BC01401B510B620B730B88859985A0E04B
:102B8000B0E084179507A607B70740F4EE89FF89E0
:102B9000309721F0CE01099581E08A8FDF91CF91A6
:102BA0001F910F910895FC01718B608B08950F9315
:102BB000FC010150040F84A996A9941718F0081776
:102BC00028F402C0081750F0041740F42150260FD3
:102BD00083A995A9961720F4281720F480E007C050
:102BE000281720F481E0261710F0F8CF81E00F912C
:102BF0000895DB011496ED91FC91159720E030E0EB
:102C000061E00994DB011496ED91FC91159720E0A9
:102C100030E063E00994DB011496ED91FC91159787
:102C200020E030E040E064E00994DB011496ED918F
:102C3000FC91159720E030E041E064E00994DB016D
:102C40001496ED91FC91159720E030E062E0099434
:102C5000DB011496ED91FC91159720E030E065E0E2
:102C60000994DB011496ED91FC91159766E00994A7
:102C7000CF92DF92EF92FF920F931F93CF93DF9348
:102C80008C016B017A0180E0F701C49181110AC0C7
:102C9000CF3FE9F14C2FB601C8010E9428168111DF
:102CA0002FC03AC0CF3F11F44FEFF5CFCE3FB1F177
:102CB000C03F30F5C03E38F04C2F4F70B601C80110
:102CC0000E941F161DC0C03D38F04C2F4F70B6013A
:102CD000C8010E94021614C0C03CA0F0B601C80191
:102CE0000E940B16C295C07FCE5FD0E0CE010E943D
:102CF000AF17B601C8010E941516CE010E94AF178A
:102D000080E006C0C7FDFCCF8C2F90E0F7CF81E0BC
:102D1000FFEFEF1AFF0AB8CF80E001C081E0DF913A
:102D2000CF911F910F91FF90EF90DF90CF9008957A
:102D3000CF93DF93FC0123A5222381F0EC0188E7E8
:102D40000E945017811102C080E009C08EA181113C
:102D500080E40E9487178823B9F31BA681E0DF91E6
:102D6000CF9108950F931F93CF93C42F89016330A0
:102D7000C1F050F4613081F0623009F048C0FC01CC
:102D800046A321E023A743C0663011F1673079F1F3
:102D9000653009F03CC00EC0FC0186A50E941A17E0
:102DA00036C0FC0116A221E023A7411130C00E94C9
:102DB000A8172DC00E949816811104C00E94A81760
:102DC00080E026C08C2F0E948717811120C0F6CF8B
:102DD0000E949816882391F3CC23C9F0F8018191C1
:102DE0008F010E948717882349F3C150F5CF0E94B5
:102DF0009816882319F3CC2351F0F80184910E948E
:102E00008717882329F00F5F1F4FC150F4CF81E04F
:102E1000CF911F910F91089590913204911104C0A8
:102E2000809332046093300408951092320410921B
:102E300030040895809331041092B90084FF02C0D9
:102E40008CE001C088E48093B8000C9415171F93A0
:102E5000CF93DF9300D0CDB7DEB720ED37E03A83D4
:102E600029839091BC00982399F429813A81232BDE
:102E700051F480913104182F127081FD09C081E056
:102E80000E940C1706C029813A8121503109E7CFF1
:102E900011E0812F0F900F90DF91CF911F91089536
:102EA000CF93C82F84EA8093BC0061E080E80E9441
:102EB0002717882359F08091B900887F883041F026
:102EC000803131F061E082E00E940C17C0E01CC04C
:102ED000C093BB0084E88093BC0062E080E80E945D
:102EE0002717882399F380913104C82FC27081FD80
:102EF0000AC08091B900887F883129F062E082E0C1
:102F00000E940C1701C0C1E08C2FCF910895CF9380
:102F10008093BB0084E88093BC0063E080E80E945B
:102F20002717C82F882389F080913104C82FC270D9
:102F300081FD0AC08091B900887F883229F063E062
:102F400082E00E940C1701C0C1E08C2FCF91089540
:102F500084E98093BC0064E080E10C9427172EE99B
:102F60003FE0009729F0F9013197F1F70197F9CF88
:102F70000895FC0112828081815083831482089518
:102F8000FC0130819281930F92832181921760F42A
:102F900094819F5F94838381830F821710F08FEF5A
:102FA000820F838381E0089580E00895A1E21A2EC4
:102FB000AA1BBB1BFD010DC0AA1FBB1FEE1FFF1FDD
:102FC000A217B307E407F50720F0A21BB30BE40B2D
:102FD000F50B661F771F881F991F1A9469F7609574
:102FE0007095809590959B01AC01BD01CF0108952E
:102FF000EE0FFF1F0590F491E02D0994EF920F93CF
:103000001F93CF93DF93E80147FD02C034E001C076
:1030100034E1042E000C550B57FF03C05195419528
:103020005109E32E022F242FAE010E94371ACE0140
:10303000DF91CF911F910F91EF9008950F931F9300
:10304000CF93DF938230910510F482E090E0E0911D
:103050003504F091360420E030E0A0E0B0E0309795
:1030600019F1408151810281138148175907C8F035
:103070008417950769F4109731F012960C93129704
:1030800013961C9327C0009335041093360422C076
:103090002115310519F04217530718F49A01BD01A3
:1030A000EF01DF01F801DBCF21153105F9F0281B15
:1030B000390B2430310580F48A819B8161157105BB
:1030C00021F0FB019383828304C0909336048093A4
:1030D0003504FE01329644C0FE01E20FF31F8193D6
:1030E000919322503109398328833AC020913304C7
:1030F00030913404232B41F42091020130910301DB
:103100003093340420933304209100013091010165
:103110002115310541F42DB73EB74091040150917E
:103120000501241B350BE0913304F0913404E217C0
:10313000F307A0F42E1B3F0B2817390778F0AC01DA
:103140004E5F5F4F2417350748F04E0F5F1F5093B7
:103150003404409333048193919302C0E0E0F0E0A3
:10316000CF01DF91CF911F910F910895CF93DF93FE
:10317000009709F481C0FC01329713821282A0915A
:103180003504B0913604109781F420813181820F8B
:10319000931F20913304309134042817390751F5D7
:1031A000F0933404E093330467C0ED0120E030E095
:1031B000CE17DF0740F44A815B819E01411551051E
:1031C000F1F0EA01F5CFD383C28340815181840FAE
:1031D000951FC817D90759F488819981840F951FC5
:1031E0000296918380838A819B81938382832115B8
:1031F000310529F4F0933604E09335043DC0E9012C
:10320000FB83EA8349915991C40FD51FEC17FD0741
:1032100061F480819181840F951F0296E901998361
:103220008883828193819B838A83E0E0F0E0129619
:103230008D919C911397009719F0FD01DC01F7CF58
:103240008D919C9111979D012E5F3F4F820F931F8F
:1032500020913304309134042817390769F43097EA
:1032600029F4109236041092350402C0138212829F
:10327000B0933404A0933304DF91CF910895A0E07C
:10328000B0E0E5E4F9E10C947D1CEC01009721F439
:10329000CB010E941E18B4C0FC01E60FF71F9C0171
:1032A00022503109E217F30708F4A8C0D9010D91A3
:1032B0001C91119706171707B0F00530110508F497
:1032C0009BC0C80104978617970708F495C0025061
:1032D0001109061B170B019311936D937C93CF017A
:1032E0000E94B61889C05B01A01AB10A4C01800E79
:1032F000911EA0913504B0913604612C712CE12C03
:10330000F12C109709F446C08D919C911197A81546
:10331000B905B1F56C0142E0C40ED11CCA14DB043E
:1033200078F14C018A189B08640142E0C40ED11C5C
:103330001296BC9012971396AC91B5E0CB16D104BF
:1033400040F0B282A38391828082D9016D937C93F5
:1033500009C00E5F1F4F800F911FF9019183808379
:10336000EB2DFA2FE114F10431F0D7011396FC9301
:10337000EE93129741C0F0933604E09335043CC0BD
:103380006816790608F43C017D0112960D90BC91F7
:10339000A02DB7CF809133049091340488169906FC
:1033A000E1F466167706C8F480910001909101015E
:1033B000009741F48DB79EB74091040150910501EB
:1033C000841B950BE817F907C8F4F0933404E093D5
:1033D0003304F901718360830FC0CB010E941E1872
:1033E0007C01009759F0A801BE010E94051ACE0188
:1033F0000E94B618C70104C0CE0102C080E090E070
:10340000CDB7DEB7EEE00C94991CFB01DC0102C0E5
:1034100001900D9241505040D8F70895FB01DC0116
:1034200001900D920020E1F70895BB27FA01A62F25
:103430006217710581059105330B30FB66F0AA27F1
:10344000660F771F881F991FAA1FA21710F0A21BD3
:1034500063953850A9F7A05DAA3308F0A95DA19340
:1034600036F7B111B1931082CA010C94691CA9E01E
:10347000B0E0EDE3FAE10C947F1C6A01122FB02E4C
:103480002BE3201720F0FF24F394F00E02C02CE36E
:10349000F22E0F2D27E0AE014F5F5F4F0E94911B70
:1034A000BC014981842F8970813031F0E1FC06C074
:1034B000E0FE06C090E205C09DE203C09BE201C0B1
:1034C00090E05E2D507143FF3CC0911102C083E03B
:1034D00001C084E0811718F4212F281B01C020E0CF
:1034E00051110BC0F601822F30E2882319F031937D
:1034F0008150FBCFC20ED11C20E0992329F0D601C8
:103500009C93F60131966F01C6010396E2FE0AC054
:103510003EE4D6013C9341E411964C9311971296E8
:103520003C9306C03EE6F601308341E64183328398
:10353000FC01322F40E2332309F442C04193315061
:10354000FACF42FF44C0911102C083E001C084E081
:10355000811718F4212F281B01C020E051110BC046
:10356000F601822F30E2882319F031938150FBCF8E
:10357000C20ED11C20E0992329F0D6019C93F601BC
:1035800031966F01C6010396E2FE0BC039E4D60105
:103590003C933EE411963C93119736E412963C938B
:1035A00007C039E6F60130833EE6318336E63283E2
:1035B000FC01322F40E2332319F041933150FBCF0D
:1035C000FC01E20FF11D10828EEF9FEFA6C021E0FB
:1035D00030E0911102C020E030E0161617061CF40E
:1035E000FB01319602C0E1E0F0E02E0F3F1FBB204F
:1035F00021F0EB2DF0E0319602C0E0E0F0E02E0F7C
:103600003F1FE12FF0E02E173F071CF4121B212F64
:1036100001C020E08E2D887159F4F601822F30E22E
:10362000882319F031938150FBCFC20ED11C20E0CA
:10363000992329F0D6019C93F60131966F0151111F
:103640000BC0F601822F90E3882319F091938150EB
:10365000FBCFC20ED11C20E00F2D060F9A81342F14
:10366000307144FF03C0913309F40150101624F463
:10367000093018F008E001C001E0AB0177FF02C09B
:1036800040E050E0FB01E41BF50BA1E0B0E0AC0F23
:10369000BD1FEA0FFB1F8EE2A82E4B01801A910876
:1036A0000B2D10E01195019511094F3FBFEF5B07FE
:1036B00021F4D601AC9211966D01641775072CF0B8
:1036C0008416950614F4818101C080E341505109AC
:1036D0003196D60111967D014017510724F0D6018D
:1036E0008C936701E2CF6417750739F4963320F4A1
:1036F000953319F4311101C081E3F6018083F7019C
:10370000822F90E2882319F091938150FBCFF7012B
:10371000E20FF11D108280E090E02996ECE00C941D
:103720009B1C283008F027E03327DA01990F311D60
:1037300087FD916000966105710539F432602E5F56
:103740003D9330E32A95E1F708959F3F30F08038AC
:103750007105610509F03C5F3C5F3D93913008F0D5
:103760008068911DDF93CF931F930F93FF92EF9289
:10377000192F987F9695E92F96959695E90FFF2733
:10378000EE53FF4F99273327EE24FF24A701E701CB
:1037900005900894079428F4360FE71EF81E491F79
:1037A000511D660F771F881F991F0694A1F705907A
:1037B000079428F4E70EF81E491F561FC11D770F06
:1037C000881F991F661F0694A1F70590079428F497
:1037D000F80E491F561FC71FD11D880F991F661F5E
:1037E000771F0694A1F70590079420F4490F561F00
:1037F000C71FD81F990F661F771F881F0694A9F748
:1038000084911095177041F0D695C79557954795B7
:10381000F794E7941A95C1F7E8E6F0E068941590FC
:10382000159135916591959105907FE27395E11819
:10383000F10A430B560BC90BD009C0F7E10CF11E7E
:10384000431F561FC91FD01D7EF4703311F48A9593
:10385000E6CFE894015030F0080F0AF40027021771
:1038600008F4202F2395022F7A3328F079E37D93F3
:103870002A95E9F710C07D932A9589F606949795C5
:103880006795379517951794E118F10A430B560B76
:10389000C90BD00998F023957E9173957A3308F07F
:1038A00070E37C932013B8F77E9170617D9330F0C4
:1038B000839571E37D9370E32A95E1F71124EF90EE
:1038C000FF900F911F91CF91DF91992787FD9095E0
:1038D0000895DC01FC01672F71917723E1F732979E
:1038E00004C07C916D9370836291AE17BF07C8F3DB
:1038F00008952F923F924F925F926F927F928F9294
:103900009F92AF92BF92CF92DF92EF92FF920F936E
:103910001F93CF93DF93CDB7DEB7CA1BDB0B0FB678
:10392000F894DEBF0FBECDBF09942A883988488835
:103930005F846E847D848C849B84AA84B984C884CB
:10394000DF80EE80FD800C811B81AA81B981CE0FC2
:10395000D11D0FB6F894DEBF0FBECDBFED010895A7
:1039600013E0C9E0D3E004C0FE010E94F8172196DD
:0A397000CA30D107C9F7F894FFCF61
:10397A00000037042000030D030D018C101101B261
:10398A0016084000000080B00325006D73006865CA
:10399A0061746572206973204F4E2E200020746F67
:1039AA0020676F00686561746572206973204F46ED
:1039BA00462E0070756C7365436F756E7465723A46
:1039CA0020006C6173742070756C73653A20002056
:1039DA00617420006E6578742070756C73653A2086
:1039EA0000000000003803CB0C000000003803CBB5
:1039FA000C000000005E0BCB0C010B1B0B0D0BA582
:023A0A000B00AF
:00000001FF
